:1080000000000120197D02009151020091510200EF
:1080100091510200915102009151020000000000B4
:10802000000000000000000000000000915102006C
:1080300091510200000000009151020099C6010018
:1080400091510200915102009151020091510200A0
:108050009151020091510200915102009151020090
:108060009151020091510200915102009151020080
:108070009151020091510200915102009151020070
:108080009151020091510200915102009151020060
:108090009151020091510200915102009151020050
:1080A0009151020091510200915102009151020040
:1080B0009151020091510200915102009151020030
:1080C0009151020091510200915102009151020020
:1080D0009151020091510200915102009151020010
:1080E0009151020091510200915102009151020000
:1080F0009151020085E1010091510200915102006D
:1081000091510200D1DF0100915102009151020012
:108110009151020085D70100915102009151020056
:1081200091510200915102009151020091510200BF
:1081300091510200915102009151020061FA010037
:108140003DED010091510200915102009151020058
:10815000915102009151020091510200915102008F
:1081600091510200196402009151020091510200E4
:10817000915102009151020091510200915102006F
:10818000915102009151020091510200915102005F
:10819000915102009151020091510200915102004F
:1081A000D1EC010091510200915102009151020065
:0C81B00091510200915102009151020017
:10840000FFFFFFFFFFFFFFFFFFFFFFFF7EF9FFFF03
:1084200010B5054C237833B9044B13B10448AFF3AE
:1084300000800123237010BD0012FF1F0000000008
:10844000ECB2020008B5034B1BB103490348AFF37C
:10845000008008BD000000000412FF1FECB2020003
:1084600010B516F097FC064B00221A70054B1B68DE
:108470009847054B9B69BDE810405B69184700BFF2
:10848000340BFF1FB001FF1FD89D0200431E2DE9D2
:10849000F0471546072B00F24D82DFE813F0080085
:1084A0000E000E0050006A00BB00FA00B301FFF797
:1084B000D7FF47F6A8532B603FE0A34BA34C0228FD
:1084C0000ABFA14699461C46A14BDF68A9F10409E1
:1084D000043C4FF0FF364FF000084FF0010A3B68B4
:1084E000D9F804001B6998473B686068DB689847C7
:1084F0003B6854F8040F5B6998473B6859F8040FD0
:108500005B6A984718B90AFA08F326EA03063B683B
:1085100020689B6998473B68D9F800005B6A9847D8
:1085200018B10AFA08F326EA030608F10108B8F1BF
:10853000110FD4D1C6F310062E60002021E029606F
:1085400003291DD8DFE801F0020A0E12804BDB6917
:108550001B681A88322353431B14ACE77C4BDB693E
:108560005B68F6E77A4BDB699B68F2E7794B1B693E
:10857000A1E7012929601DD04EB226B102292FD0D2
:108580000220BDE8F087724BDD68D5E90030DB687A
:1085900068309847D5E90030DB6888309847D5E9DE
:1085A00000305B6968309847D5E900305B698830F6
:1085B0009847C2E7664BDC68D4E90030DB68C83016
:1085C0009847D4E90030DB68A8309847D4E90030F8
:1085D0005B69C8309847D4E900305B69A830E7E7A9
:1085E0005B4BDC68D4E90030DB6800F5A470984789
:1085F000D4E90030DB6800F5B4709847D4E9003066
:108600005B6900F5A4709847D4E900305B6900F518
:10861000B470CDE70129296026D04EB2CEB102292F
:10862000AED14B4BDC68D4E90030DB6800F5A470B8
:108630009847D4E90030DB6800F5B4709847D4E976
:1086400000305B6900F5A4709847D4E900309B695D
:10865000DDE73F4BDD68D5E90030DB6888309847BF
:10866000D5E900301B699DE7394BDC68D4E900305F
:10867000DB68C8309847D4E90030DB68A8309847F9
:10868000D4E900305B69C8309847D4E900309B6971
:10869000A4E7296000295FD001297FF471AF2C4B3A
:1086A000DC68D4E90030DB6800F5D9609847D4E98C
:1086B00000309B6900F5D9609847D4E90030DB6849
:1086C00000F5DD609847D4E900309B6900F5DD6076
:1086D0009847D4E90030DB6800F5E1609847D4E9B9
:1086E00000309B6900F5E1609847D4E90030DB6811
:1086F00000F5E5609847D4E900309B6900F5E56036
:108700009847D4E90030DB6800F5E9609847D4E980
:1087100000309B6900F5E9609847D4E90030DB68D8
:1087200000F5ED609847D4E900309B6900F5ED60F5
:108730009847D4E90030DB6800F5F1609847D4E948
:1087400000309B695BE000BF445EFF1F805FFF1F3E
:10875000D89D0200340BFF1F774BDD68D5E9003050
:10876000DB6800F5D9609847D5E900305B6900F512
:10877000D9609847D5E90030DB6800F5DD6098479F
:10878000D5E900305B6900F5DD609847D5E9003038
:10879000DB6800F5E1609847D5E900305B6900F5DA
:1087A000E1609847D5E90030DB6800F5E56098475F
:1087B000D5E900305B6900F5E5609847D5E9003000
:1087C000DB6800F5E9609847D5E900305B6900F5A2
:1087D000E9609847D5E90030DB6800F5ED6098471F
:1087E000D5E900305B6900F5ED609847D5E90030C8
:1087F000DB6800F5F1609847D5E900305B6900F56A
:10880000F160D5E6296000294AD001297FF4B8AE8D
:10881000494BDC68D4E90030DB6800F5B16098476B
:10882000D4E900309B6900F5B1609847D4E9003085
:10883000DB6800F5B5609847D4E900309B6900F526
:10884000B5609847D4E90030DB6800F5B960984717
:10885000D4E900309B6900F5B9609847D4E900304D
:10886000DB6800F5BD609847D4E900309B6900F5EE
:10887000BD609847D4E90030DB6800F5C1609847D7
:10888000D4E900309B6900F5C1609847D4E9003015
:10889000DB6800F5C5609847D4E900309B6946E085
:1088A000254BDD68D5E90030DB6800F5B1609847FD
:1088B000D5E900305B6900F5B1609847D5E9003033
:1088C000DB6800F5B5609847D5E900305B6900F5D5
:1088D000B5609847D5E90030DB6800F5B960984786
:1088E000D5E900305B6900F5B9609847D5E90030FB
:1088F000DB6800F5BD609847D5E900305B6900F59D
:10890000BD609847D5E90030DB6800F5C160984745
:10891000D5E900305B6900F5C1609847D5E90030C2
:10892000DB6800F5C5609847D5E900305B6900F564
:10893000C5603DE6042024E6D89D020038B5064C0B
:108940002368C31AB3F5FA7F054604D3034B9B692A
:108950009B699847256038BD1C12FF1FD89D0200F7
:108960003A4B3B4ADB685B6803F59471116003F195
:108970004801516003F18801916003F1C801D160A1
:1089800003F58471116103F5B471516103F5D4717C
:10899000916103F5F471D16103F50A71116203F578
:1089A0001A71516203F52A71916203F53A71D1622D
:1089B00003F54A71116303F55A71516303F56A7146
:1089C000916303F57A71D16303F585611164214ADE
:1089D00003F10801116003F12801516003F16801FE
:1089E000916003F1A801D16003F1E801116103F581
:1089F000A471516103F5C471916103F5E471D16112
:108A000003F50271116203F51271516203F52271CF
:108A1000916203F53271D16203F54271116303F57E
:108A20005271516303F56271916303F5727103F53D
:108A300081631364084BD16301221A70074B084A03
:108A40005A65084ADA65084A9A657047D89D020057
:108A5000445EFF1F805FFF1F340BFF1F885EFF1FF8
:108A60008D840000618400003D8900007047022071
:108A700070470220704770477047022070470220FD
:108A800070470220704701207047704702207047EE
:108A900070478369124A134910B5C3E98122124B0A
:108AA000C365124BC361C0E90A1311490362C0E9EF
:108AB0000C13104B8364104BC364104B8363C0E9E9
:108AC00010330F4B436600230E4CC3660E4B0F4A08
:108AD0008265C463C0E914140266C0E91C3310BD8A
:108AE000878A00006F8A00006D8A0000738A000088
:108AF0007B8A0000778A0000798A00007F8A000064
:108B00008B8A0000838A00008D8A0000918A000011
:108B1000704700BF0A480B4B0022012110B44FF0F0
:108B2000FF3480F88C201A8083F81012C0E92141AC
:108B3000C0F89030C0F8802010BC7830FFF7A9BF93
:108B4000885EFF1F2C12FF1F084A094800234FF0C0
:108B5000FF314FF0010C138082F810328261C0E9BE
:108B6000031C03758360FFF794BF00BF4C14FF1F05
:108B7000885EFF1F00230649184611F8012B02F0FA
:108B800003029A4002330E2B40EA0200F5D17047EF
:108B90006C16FF1F0549431E063011F8012B02F029
:108BA000030203F8012F8342F7D170476C16FF1FB1
:108BB000074B1A7802705A7842709A788270DA7885
:108BC000C2701A7902715A7942719B798371704728
:108BD0006C16FF1FF8B5094B094D0A4FDE680024DB
:108BE00015F8011B7A6C33681059DB6901F0030139
:108BF000043498471C2CF3D1F8BD00BFD89D020067
:108C00006C16FF1F0800FF1F064A0723013B00F0F8
:108C1000030113F0FF0302F8011B4FEA9000F5D1A6
:108C2000D8E700BF6C16FF1F014B586AECE700BF86
:108C30000800FF1F0549431E063013F8012F02F0FC
:108C40000302834201F8012BF7D1C3E76C16FF1F23
:108C5000074B02781A7042785A7082789A70C278FC
:108C6000DA7002791A7142795A7182799A71B1E790
:108C70006C16FF1F024B0022C3F88020704700BF14
:108C8000885EFF1F10B50348144617F0BAFC206039
:108C900010BD00BFA016FF1F10B50F4C01462046A7
:108CA00017F01BFD002016F027FE6F21204617F05D
:108CB000A8FCC0F30061002016F0C2FE012016F0EF
:108CC0001BFE7F21204617F09CFCBDE81040C0F33E
:108CD0000061012016F0B4BEA016FF1F014817F076
:108CE00082BC00BFA016FF1F012808B503D816F0EC
:108CF000EBFD002008BD0820FCE7012808B503D8DB
:108D000016F0BCFD002008BD0820FCE70021F4E7B8
:108D10004942F2E7F1E70129F8B506461D46084643
:108D200000F2CA82A32A00F0938143D8072A00F0F8
:108D3000EC8022D8032A00F0C1800AD8012A00F072
:108D4000B18040F2A480002E40F0B48016F06EFF97
:108D5000A0E0052A00F0C38040F2B68020248C40B9
:108D600044F01004E4B22146B848002E40F0BF8021
:108D700017F047FCC0F304208CE0322A00F0FC809E
:108D80000AD81C2A00F0DE801D2A00F0F080082A94
:108D900000F0D08004267EE08C2A00F0F980A22A20
:108DA00000F03E81332AF5D1002E40F0ED8016F020
:108DB00089FF6FE0AB2A00F0008232D8A72A4FEA81
:108DC000011000F0BE811AD8A52A00F06A8140F295
:108DD000548140F06C00C4B221469C4817F011FC4D
:108DE000214600F480479948002E40F09F81002FD3
:108DF00000F0968117F005FCC0F302104AE0A92AA2
:108E000000F0BE8140F2A98140F06D00C4B221465D
:108E10008E48002E40F0C88117F0F3FBC0F303200A
:108E200038E0B32A00F009821BD8AD2A00F0E781B0
:108E3000C0F0D881AE2AADD10C0144F06D04E4B28B
:108E400021468248002E40F0EF8117F0DAFB001433
:108E500000F07F0310F0400018BF6FF07F00184350
:108E600018E0B52A00F00B82C0F0FC81B82A00F0AF
:108E70000E82CE2A8ED1002E8CD1080140F06F01D7
:108E8000C9B2724817F0BDFBC0F3090002E026B971
:108E900016F0ACFE28603046F8BD196816F014FDD7
:108EA0000026F8E716B916F091FEF3E7196816F0F8
:108EB0002DFEF5E7196816F0E1FCF1E7002E7FF4CE
:108EC00069AF16F0A3FEE5E716B916F0CFFEE1E7AD
:108ED00019680029B8BF494216F034FEE0E716B918
:108EE00016F0B4FED6E7196816F0DBFFD8E717F0E6
:108EF00088FB2B681B0203F4F85320F4F8521A4342
:108F00002146524817F06FFBCAE720248C4044F0FA
:108F10001004E4B221464D4826B917F072FB00F068
:108F20001F00B7E717F06DFB2B6820F01F0203F05E
:108F30001F03E4E7002E7FF42DAF16F023FDC0F3EE
:108F40000010A7E70C0144F06C04E4B221463F484E
:108F500026B917F056FBC0F380409BE717F051FB92
:108F60002B689B0403F4802320F48022C7E7002EA3
:108F70007FF410AF0020A4E716B916F095FE89E73C
:108F8000197816F0FBFD8BE7196816F007FE87E7E6
:108F900056B9080140F06C0101F0FC012B4817F0B4
:108FA00030FBC0F3036075E71B68102B32D00EDC7A
:108FB000022B2BD005DC012B17D04FF0FF332B6099
:108FC0006EE7042B24D0082BF7D105230EE0402BAD
:108FD00022D003DC202BF0D1032307E0802B1DD00F
:108FE000B3F5807FE9D1002300E00823040144F0B9
:108FF0006C04E4B22B602146144817F002FB2B6886
:109000001B0603F0706320F0706278E70723EDE73A
:109010000623EBE70423E9E70223E7E70123E5E77B
:109020000C0144F06C04E4B22146084826B917F05C
:10903000E8FAC0F3C1302DE717F0E3FA2B68DB0341
:1090400003F4C03320F4C03259E700BFA016FF1F5D
:109050000C0144F06C04E4B22146984826B917F09C
:10906000D0FAC0F3803015E717F0CBFA2B689B03DA
:1090700003F4804320F4804241E740F06C00C4B226
:1090800021468E4826B917F0BCFAC0F3003001E73C
:1090900017F0B7FA2B681B0303F4805320F48052B7
:1090A0002DE740F06C00C4B22146844817F0A9FABD
:1090B0002146074600F4804380487EB923B117F06B
:1090C000A0FAC0F3C310E5E617F09BFAC0F3021351
:1090D00017F4006018BF43F0080370E743B117F0BE
:1090E00090FA2B68DB0103F4F06320F4F06206E7EA
:1090F00017F087FA2A68120120F0700002F070025F
:10910000024321466D4817F06EFA21466B4817F06E
:1091100078FA2B681B0203F4006320F40062EEE689
:1091200017F06FFAC0F3C3102860B9E6002FD6D04D
:1091300017F067FA2B681B0103F0700320F0700230
:10914000DDE640F06C00C4B221465C48002E4ED1F2
:1091500017F057FA00F00F009CE640F06D00C4B223
:109160002146564826B917F04CFAC0F3C03091E6B4
:1091700017F047FA2B68DB039BB220F40042BEE6EF
:1091800040F06D00C4B221464C4826B917F039FAB8
:10919000C0F341307EE617F034FA2B685B0303F42A
:1091A000C04320F4C042AAE617F02BFA2B681B023A
:1091B00003F4706320F47062A1E60C0144F06D04C6
:1091C000E4B221463D4826B917F01BFAC0F341101E
:1091D00060E617F016FA2B685B0103F0600320F0DD
:1091E00060028CE60C0144F06D04E4B2ACE717F0C9
:1091F00008FA2B6820F00F0203F00F037FE60C0142
:1092000044F06D04E4B221462C4826B917F0F9F970
:10921000C0F300603EE617F0F4F92B681B0603F07C
:10922000807320F080726AE617F0EBF92B681B045C
:1092300003F4FE0320F4FE0261E60C0144F06C042A
:10924000E4B221461D4826B917F0DBF9C0F34040CF
:1092500020E617F0D6F92B685B0403F4003320F402
:1092600000324CE6002E7FF495AD080140F06F010E
:10927000C9B2124817F0C5F9C0F304400AE616B99E
:1092800016F004FD06E6196816F06AFC08E60C0103
:1092900044F06C04E4B22146084826B917F0B1F94D
:1092A000C0F34030F6E517F0ACF92B685B0303F42C
:1092B000005320F4005222E60826ECE5A016FF1F1A
:1092C00007B5019201AB02460120FFF724FD03B070
:1092D0005DF804FB1346024600201CE5014817F028
:1092E000E4B900BFA016FF1F022804BF0C4B93F87F
:1092F000F00038B90B4BDB681B685B690A4AD2F88F
:1093000094021847012809D1054B93F8F030012B3E
:1093100004D1044BDB681B689B69EFE7704700BF13
:10932000885EFF1FD89D0200A016FF1F70B50020A9
:10933000FFF7DAFF0C4B0D4CDD68D4F894022B6874
:109340009B6898472B68D4F8A4029B6898472B68C1
:10935000D4F8A8029B68984716F05EFD044BBDE860
:1093600070405B68184700BFD89D0200A016FF1F21
:10937000E00AFF1F0346052B10B5084614460BD024
:1093800006D8022B06D316F09DFC2060002010BDED
:10939000182BF8D00420FAE716F0B0FCF5E738B542
:1093A0000D46044620B916F031FC2860204638BD31
:1093B0000820FCE7022810B5144611D0032817D066
:1093C000012819D10D4B0E4ADB68D2F8A4021B68A4
:1093D0005B6A9847003018BF01202060002010BD54
:1093E000064B074ADB68D2F8A8021B685B6AF0E705
:1093F000084616F0C7FAF0E70420F0E7D89D02000F
:10940000A016FF1F012838B504460D4608D816F0EF
:10941000DDFB2B68C11829602046BDE8384063E4B5
:10942000082038BD38B5002016F0F0FB08B1002048
:1094300038BD012016F0EAFB05460028F7D10C4C98
:10944000204617F01FF90B4816F06EFC2B46D4F897
:109450008C22D4F88412284616F0BCFA01202B4640
:10946000D4F89022D4F8881216F0B4FA0120DFE77D
:10947000A016FF1FA0860100022806D3052801D9E7
:10948000182802D100201060704704207047034B59
:10949000D3F8B0320846DB6811461847A016FF1F04
:1094A0002DE9F0415A4C5B4D5B4FD4F890205B4B5B
:1094B0000121284617F0C9F8FE68736803F16802B5
:1094C000C5F8942203F1E802C5F8A82203F58472D6
:1094D000C5F8A42203F5A472C5F88C2203F5B47272
:1094E00003F59470C5F8882203F5C47203F502737E
:1094F000C5F8AC323368C5F89022DB68C5F8840241
:1095000098473368D5F88C02DB6898473368D5F8FC
:109510008802DB6898473368D5F89002DB68984783
:109520003368D5F89402DB6898473368D5F8AC0205
:10953000DB6898473B693A4803F11402C5F8B0224A
:10954000D5F8AC229A6116F0EFFB0023D5F88C22F7
:10955000D5F88412184616F03DFAD5F88812D5F8D9
:1095600090220023012016F035FAD4F890302D4ACD
:10957000C3F804222C4AC3F8082201221A802B4B7C
:10958000C4F89C302A4BC4F898302A4BC4F8943065
:10959000294BC4F8A030294BC4F8B430284BC4F888
:1095A000B030284BC4F8A430274BC4F8A830274B60
:1095B000C4F8C430264BC4F8C030264BC4F8D030B1
:1095C000254BC4F8CC30254BC4F8C830244BC4F824
:1095D000DC30244BC4F8D83032224FF48F73C4E906
:1095E0002132214BC4F8D430204BC4F8E83002209B
:1095F0001F4B84F88C00C4F8EC301E4CFFF774FE4F
:10960000236898470021A3680846BDE8F041184741
:10961000885EFF1FA016FF1FD89D0200947F0200E6
:10962000A086010025940000DD920000FB8C000064
:10963000158D0000118D00000D8D0000D5920000E9
:10964000C1920000E98C000005940000DD8C000050
:10965000858C0000998C0000B59300009F9300005A
:10966000E9920000758C00002D93000079940000B1
:1096700075930000E00AFF1F014B1046DB6B184793
:109680000800FF1F034B10B51B6C14469847206061
:1096900010BD00BF0800FF1F062873B504460E4624
:1096A0007BD8404D68462B6B013C98472B46042CD9
:1096B00004D8DFE804F00866696C6F009DF800309C
:1096C000336000200BE09DF80120E978914208D139
:1096D0009DF80200297B884203D10020306002B04F
:1096E00070BD1979914206D19DF80200597B8842DC
:1096F00001D10123E4E75979914206D19DF8020096
:10970000997B884201D10223DAE79979914206D107
:109710009DF80200D97B884201D10323D0E7D97993
:10972000914206D19DF80200197C884201D10423A0
:10973000C6E7597A914206D19DF80200997C884289
:1097400001D10523BCE7997A914206D19DF8020028
:10975000D97C884201D10623B2E7197A914206D119
:109760009DF80200597C884201D10723A8E7D97AE5
:10977000914214D19DF802201B7D9A420FD10823FB
:109780009EE79DF803309BE79DF8043098E79DF82D
:10979000053095E79DF8063092E704209FE71020FA
:1097A0009DE700BF0800FF1F07B5034B68461B6B12
:1097B000984703B05DF804FB0800FF1F70B5002058
:1097C000FFF7F2FF1E4B1F4CDD68206B2B689B6878
:1097D00098472B68E06A9B6898472B68E0689B680D
:1097E00098472B68A0689B6898472B6860689B68BF
:1097F00098472B6820689B6898472B68A0699B68EE
:1098000098472B68E0699B6898472B68A06A9B681B
:1098100098472B6860699B6898472B68206A9B680B
:1098200098472B68606A9B6898472B6820699B68FB
:10983000984716F0F1FA044BBDE870405B68184792
:10984000D89D02006019FF1FE00AFF1F10B50446F3
:1098500018B916F039F8204610BD0820FCE710B5FD
:10986000044618B916F00AF8204610BD0820FCE797
:109870000021F4E74942F2E7F1E7062873B505460F
:109880000C465DD8022903D901285BD10F2959DC88
:109890002D4E6846336B98473346052D06D8DFE8D2
:1098A00005F0030B4346494C8DF800406846DB6ADF
:1098B0009847002002B070BD082CF7D8DFE804F00C
:1098C000050C11161B20252A2F00F2788DF8012097
:1098D000327B8DF80220E9E732798DF80120727B26
:1098E000F7E772798DF80120B27BF2E7B2798DF853
:1098F0000120F27BEDE7F2798DF80120327CE8E778
:10990000727A8DF80120B27CE3E7B27A8DF80120FB
:10991000F27CDEE7327A8DF80120727CD9E7F27AA8
:109920008DF80120327DD4E78DF80340BEE78DF835
:109930000440BBE78DF80540B8E78DF80640B5E771
:109940000420B7E71020B5E70800FF1F002015F03E
:10995000D3BF38B5154618B1012807D0042038BD4B
:10996000084616F00FF828600020F8E7094B0A4D6A
:10997000DC680A4B606800F59470D8616B6C5861C4
:109980002368DB6898476A6C236850699B6998472D
:10999000EAE700BFD89D02000800FF1F6019FF1F03
:1099A00038B50D46044648B916F010F92B68C118B1
:1099B0002960204615F088FF204638BD0820FCE7C6
:1099C00070B5054616460C4600295DD10B2810D807
:1099D00006283CD202282ED004D808B3012825D06E
:1099E000042421E004282ED029D9084616F02EF9A7
:1099F0001FE013280CD80E283CD20C282FD00D289D
:109A0000EED1224B224ADB68106B1B685B6A2CE0AC
:109A1000322835D03328E3D1084616F053F908E050
:109A200016F0E4F82C463060204670BD084616F06B
:109A3000CDF83060F8E7084616F0F8F8F9E7084680
:109A400016F0E4F8F5E7084616F010F9F1E70828F3
:109A5000C6D1084615F096FFC0F30010E9E70B4B9E
:109A60000B4ADB68D06A1B685B6A9847003018BFF6
:109A70000120DEE70E381146C0B2FFF70DFED3E736
:109A8000084616F011F9D4E70824CDE7D89D020066
:109A90006019FF1F30B585B0054601920C460029BC
:109AA0006ED10B2812D8062846D2022837D004D807
:109AB00048B301282CD004242EE0042834D00528F3
:109AC000F9D11146204616F0ECF925E013280FD8FD
:109AD0000E2845D20C2836D00D28ECD142F2107356
:109AE0009A42E8D8274B91B29B682046984713E0EA
:109AF000332837D08C283AD03228DCD1D1B2204656
:109B000016F03CF808E0114615F0DEFE2C4603E0A6
:109B10001146204615F0FAFF204605B030BD11462B
:109B2000204615F0ABFEF7E782EAE271A1EBE271A5
:109B3000204616F007F8EFE706381146C0B2FFF7E7
:109B40009CFE0446E8E7104B1049DB68C86A1B68B6
:109B5000154612B15B699847DEE79B699847D5E7E0
:109B60000E38EAE71146204616F018F8D4E701A9A6
:109B70000120FFF791FD064B04469B6B02A8EAE724
:109B80000824C9E7E00AFF1FD89D02006019FF1FE3
:109B90000800FF1F6E4B2DE9F041DE686D4C7068C8
:109BA0006D4F00F5E473236300F5D473E36200F5B1
:109BB0002273E36000F52A73A36000F51A736360F3
:109BC00000F50273236000F55A73A36100F5527328
:109BD000E36100F16803A36200F5A473636100F51B
:109BE0006A73236200F572736362336800F59470E0
:109BF000DB682061984733686069DB6898473368A1
:109C0000206BDB6898473368E06ADB689847336805
:109C1000206A1B6998473368606A1B6998477B6CA8
:109C2000E2681A60A2685A6062689A602268DA6024
:109C3000A2691A61E2695A61A26A9A6100257A6C86
:109C400033685059DB6898477A6C336850599B6980
:109C5000043598471C2DF2D1404DD5F890304FF087
:109C6000000883F800804FF4003016F05DF8D4E966
:109C700004124346404615F0ADFE44F620614046CE
:109C800015F060FF46F2A811404616F00AF9344B71
:109C9000C5F89C30334BC5F89830334BC5F8943039
:109CA000324BC5F8A030324BC5F8B430314BC5F853
:109CB000B030314BC5F8A430304BC5F8A830304B2C
:109CC000C5F8C4302F4BC5F8C0302F4BC5F8CC3089
:109CD0002E4BC5F8D0302E4BC5F8DC30012385F86B
:109CE0008C3002202B4BC5F8D430FFF75DFD404689
:109CF00015F08CFF10B1284B9B78ABB1BB6A98472D
:109D00004FF4003016F010F80023D4E9041218467E
:109D100015F060FE44F62061002015F013FF46F2B6
:109D2000A811002016F0BDF83368206BDB68984757
:109D3000206B1A4C0423437533681B6898472368CB
:109D400098470021A3680846BDE8F041184700BFC6
:109D5000D89D02006019FF1F0800FF1F885EFF1FCB
:109D60005F980000799800007598000071980000D5
:109D7000C1990000959A00004D980000A19900003B
:109D80007996000085960000539900004D990000D7
:109D9000A9970000BD970000340BFF1FE00AFF1FCA
:109DA0001B4B70B5DD681B4C2B68A0685B6998473E
:109DB0002B6820689B6898472B6860689B68984769
:109DC0002B68206A9B6898472B68606A9B68984755
:109DD0002B68E0689B6898472B6820699B689847C8
:109DE0002B6860699B6898472B68A0699B689847B7
:109DF0002B68E0699B6898472B68A0689B68984728
:109E000016F00AF8044BBDE870405B68184700BFC5
:109E1000D89D0200A019FF1FE00AFF1F10B51446CD
:109E2000062805D8DFE800F0062523343F444E001D
:109E3000042010BD146844F620639C424ED8284B81
:109E4000284ADB68106A1B6842F210718C42DB6999
:109E500094BF00210121984742F21173B4FBF3F142
:109E600003FB1141204B89B29B68002098470020DA
:109E7000DFE71B4B2468DA68D2E9003000F5F470A4
:109E80001CB1DB6900219847F1E79B689847EEE732
:109E9000134B1168DB68134A1B681069DB690031DA
:109EA00018BF0121EFE7084615F06CFD2060DEE7E2
:109EB0000B4B0C4ADB6858681B6800F59470106106
:109EC000DB68E3E7064B074ADB6858681B6800F667
:109ED0000801D1605B6900F55270D7E71020A8E750
:109EE000D89D0200A019FF1FE00AFF1F10B503480C
:109EF000144616F070FC206010BD00BFC45FFF1F49
:109F000010B5094C0146204616F003FD002015F05F
:109F1000F3FC6F21204616F05EFCBDE81040C0F354
:109F20000061002015F08CBDC45FFF1F014816F0D2
:109F300044BC00BFC45FFF1F10B5044618B915F03C
:109F4000C3FC204610BD0820FCE710B5044618B934
:109F500015F094FC204610BD0820FCE70021F4E732
:109F60004942F2E7F1E770B504461D460E46002966
:109F700040F04E85A52A00F08F8256D8172A00F0AF
:109F8000478126D8042A00F0E8800ED8012A00F084
:109F9000AD80002A00F09E80022A00F0B280032AE1
:109FA00000F0BA800424204670BD072A00F0068124
:109FB00007D8052A00F0DF80062A00F0E780042495
:109FC000F1E7082A00F01181152A00F01781042416
:109FD000E9E7322A00F0B28113D81B2A00F063812E
:109FE00007D8182A00F039811A2A00F04481042485
:109FF000D9E71C2A00F06F811D2A00F08681042415
:10A00000D1E7A22A00F0008207D8332A00F0A1810C
:10A010008C2A00F0A9810424C5E7A32A00F00C8251
:10A02000A42A00F021820424BDE7B42A00F0B583FD
:10A0300024D8AA2A00F018830CD8A72A00F0CE82D0
:10A04000C0F08682A82A00F0E082A92A00F0F482FB
:10A050000424A8E7AD2A00F0518307D8AB2A00F00A
:10A060001B83AC2A00F0308304249CE7AE2A00F066
:10A070005D83B32A00F07983042494E7BB2A00F0BF
:10A08000278413D8B82A00F0C88307D8B52A00F06F
:10A090009083B62A00F09A83042484E7B92A00F05A
:10A0A000D683BA2A00F0ED8304247CE7C02A00F0AE
:10A0B0006C8407D8BC2A00F03384BF2A00F04684A1
:10A0C000042470E7CC2A00F07B84CE2A00F096842A
:10A0D000042468E720B9002015F088FD286062E7B5
:10A0E0001968002015F0F0FB00245CE718B915F0A2
:10A0F0006DFD286057E71968304615F007FD3446B6
:10A1000051E718B915F092FD28604CE71968002056
:10A1100015F0B4FB002446E7002840F07C8415F0DD
:10A12000C3FD18B915F072FD28603CE7204615F014
:10A13000C9FD12210646B14816F04DFBC0F31302CB
:10A140007A20D317A6FB00011DF02CFC00F11303AD
:10A15000262B98BF0020286025E718B915F086FD4A
:10A16000286020E719680029B8BF4942304615F039
:10A17000E9FC344617E718B915F068FD286012E7C6
:10A180001968002015F08DFE00240CE710219B4873
:10A190002CB916F020FBC0F30420286003E716F06A
:10A1A0001AFB2B681B0203F4F85320F4F8521A43ED
:10A1B0001021924816F001FB0024F4E610218F488C
:10A1C0002CB916F008FB00F01F002860EBE616F033
:10A1D00002FB2B6820F01F0203F01F031A4310211B
:10A1E000864816F0EAFA3446DDE6002840F0168488
:10A1F00015F0C8FBC0F300102860D4E6002800F07A
:10A2000010841A687D48112116F0D7FA0024CAE696
:10A210007B4E80B91521794816F0DDFA48B14FF030
:10A22000807393FBF0F0B042A8BF30462860002452
:10A23000B9E63046FAE71B686BB14FF0807292FBCB
:10A24000F3F2B242A8BF32462A6015216B4816F0DD
:10A25000B4FA0024A7E63246F6E728B93321674866
:10A2600016F0B9FA28609EE61A686448332116F0A1
:10A27000A4FA002497E66C2160482CB916F0ABFADA
:10A28000C0F3804028608EE616F0A5FA2B689B0488
:10A2900003F4802320F480221A436C21574816F0DF
:10A2A0008CFA00247FE66C2154482CB916F093FAFE
:10A2B000C0F3C040286076E616F08DFA2B68DB0408
:10A2C00003F4002320F400221A436C214B4816F0BB
:10A2D00074FA344667E638B90146484816F07BFA06
:10A2E000C0F3400028605EE60021444816F073FA8F
:10A2F0002B685B0003F0020320F002021A430021E6
:10A300003E4816F05AFA00244DE6002840F08C83AF
:10A3100015F0D8FC12210646384816F05CFAC0F356
:10A3200013027A20D317A6FB00011DF03BFB00F1BE
:10A330001303262B98BF0020286034E618B915F0C7
:10A34000B3FC28602FE61978304615F017FC344628
:10A3500029E618B915F0B6FC286024E61968002033
:10A3600015F01CFC00241EE650B96C21234816F0A1
:10A3700032FA4FF48073C0F3036003412B6012E69E
:10A380001B68102B35D00FDC022B2ED006DC012BE6
:10A3900018D04FF0FF332B60102404E6042B26D096
:10A3A000082BF6D105230EE0402B24D003DC202B14
:10A3B000EFD1032307E0802B24D0B3F5807FE8D1D1
:10A3C000002300E008232B606C210C4816F003FAF0
:10A3D0002B681B0603F0706320F070621A436C2137
:10A3E000064816F0EAF90024DDE50723EBE706232B
:10A3F000E9E70423E7E70223E5E700BFC45FFF1FA7
:10A40000FFFF0F000123DEE76C21BB482CB916F0DB
:10A41000E2F9C0F3C1302860C5E516F0DCF92B681D
:10A42000DB0303F4C03320F4C0321A436C21B2487A
:10A4300016F0C3F93446B6E56C21AF482CB916F0D6
:10A44000CAF9C0F380302860ADE516F0C4F92B6876
:10A450009B0303F4804320F480421A436C21A648F6
:10A4600016F0ABF900249EE56C21A3482CB916F038
:10A47000B2F9C0F30030286095E516F0ACF92B680E
:10A480001B0303F4805320F480521A436C219A4832
:10A4900016F093F9002486E56C21974804BB16F06A
:10A4A0009AF910F480464FF06C01934805D016F0ED
:10A4B00092F9C0F3C310286075E516F08CF96C2191
:10A4C00004468D4816F087F92205C0F3021002D425
:10A4D0002860002467E540F008002860344662E503
:10A4E00016F079F910F480444FF06C0182480ED0D8
:10A4F00016F071F92B68DB0103F4F06320F4F062CD
:10A500001A436C217C4816F058F934464BE516F096
:10A5100062F96C21784816F05EF92A68120220F47C
:10A52000006002F4006202436C21734816F045F9A2
:10A530006C21714816F04FF92B681B0103F0700372
:10A5400020F070021A436C216B4816F036F92AE5A8
:10A550006C216948ECB916F03EF910F480444FF0D4
:10A560006C01654806D016F036F9C0F30210286079
:10A57000002418E516F02FF96C2106465E4816F007
:10A580002AF93305C0F3C310A2D540F008002860B3
:10A5900009E516F020F910F480444FF06C0156489C
:10A5A0000ED016F018F92B681B0103F0700320F091
:10A5B00070021A436C21504816F0FFF80024F2E4B0
:10A5C00016F009F92B68DB0103F4F06320F4F06264
:10A5D0001A436C21484816F0F0F8E4E46C21464830
:10A5E0002CB916F0F8F800F00F002860DBE416F044
:10A5F000F2F82B6820F00F0203F00F031A436C21CE
:10A600003D4816F0DAF83446CDE46D213A482CB9CD
:10A6100016F0E1F8C0F3C0302860C4E416F0DBF8AF
:10A620002B68DB039BB220F400421A436D213248B1
:10A6300016F0C3F80024B6E46D212F482CB916F0AB
:10A64000CAF8C0F341302860ADE416F0C4F82B68B6
:10A650005B0303F4C04320F4C0421A436D21264833
:10A6600016F0ABF800249EE46D2123482CB916F0B7
:10A67000B2F8C0F30320286095E416F0ACF82B681C
:10A680001B0203F4706320F470621A436D211A48B0
:10A6900016F093F8344686E46D2117482CB916F06D
:10A6A0009AF8C0F3411028607DE416F094F82B6806
:10A6B0005B0103F0600320F060021A436D210E4835
:10A6C00016F07BF800246EE46D210B482CB916F0CF
:10A6D00082F800F00F00286065E416F07CF82B6823
:10A6E00020F00F0203F00F031A436D21024816F009
:10A6F00064F8002457E400BFC45FFF1F6D21BD480C
:10A700002CB916F068F8C0F3006028604BE416F02E
:10A7100062F82B681B0603F0807320F080721A43E6
:10A720006D21B44816F049F834463CE46D21B14837
:10A7300064B916F050F8001400F07F0310F04000E8
:10A7400018BF6FF07F00184328602CE416F043F820
:10A750002B681B0403F4FE0320F4FE021A436D2150
:10A76000A44816F02AF800241DE46C21A1482CB955
:10A7700016F031F8C0F34040286014E416F02BF8CE
:10A780002B685B0403F4003320F400321A436C217D
:10A79000984816F012F8002405E4002840F047819C
:10A7A0006F21944816F017F8C0F304402860FFF7B3
:10A7B000FABB20B915F06AFA2860FFF7F4BB1968F4
:10A7C000002015F0CDF90024FFF7EDBB8A4E88B9C3
:10A7D0001421884815F0FFFF50B14FF0807393FBB0
:10A7E000F0F0B042A8BF304628600024FFF7DBBB82
:10A7F0003046F9E71B6873B14FF0807292FBF3F2B9
:10A80000B242A8BF32462A6014217A4815F0D5FF1B
:10A810000024FFF7C8BB3246F5E76C21754834B910
:10A8200015F0D9FFC0F340302860FFF7BCBB15F02E
:10A83000D2FF2B685B0303F4005320F400521A4349
:10A840006C216C4815F0B9FF3446FFF7ACBB6C21A6
:10A85000684834B915F0BFFFC0F303502860FFF714
:10A86000A2BB15F0B8FF2B681B0503F4700320F49E
:10A8700070021A436C215F4815F09FFF0024FFF718
:10A8800092BB5D4E88B913215A4815F0A4FF50B110
:10A890004FF0807393FBF0F0B042A8BF30462860C1
:10A8A0000024FFF780BB3046F9E71B6873B14FF017
:10A8B000807292FBF3F2B242A8BF32462A601321A3
:10A8C0004C4815F07AFF0024FFF76DBB3246F5E7E0
:10A8D0007021484834B915F07EFFC0F30720286086
:10A8E000FFF761BB15F077FF2A68120220F47F4062
:10A8F00092B2024370213F4815F05FFF31463D4858
:10A9000015F069FF2B68002B20F0040218BF042308
:10A910001A433146374815F050FF3446FFF743BB22
:10A92000702134482CB915F056FFC0B22860FFF7EB
:10A930003ABB15F050FF2A7820F0FF000243702147
:10A940002C4815F03AFF0024FFF72DBB40B97021C9
:10A95000284815F040FFC0F301402860FFF723BBF3
:10A960001B68032B66D87021224815F034FF2B6832
:10A970001B0403F4403320F440321A4370211D4875
:10A9800015F01BFF0024FFF70EBB7021194834B9E6
:10A9900015F021FFC0F380402860FFF704BB15F0DD
:10A9A0001AFF2B68002B20F4802218BF4FF480235D
:10A9B0001A4370210F4815F000FF3446FFF7F3BA31
:10A9C00070210C4834B915F006FFC0F3015028601F
:10A9D000FFF7E9BA15F0FFFE2B681B0503F44013DF
:10A9E00020F440121A437021024815F0E6FE0024BC
:10A9F000FFF7D9BAC45FFF1FFFFF0F00E8B96F214F
:10AA00000F4815F0E8FEC0F309002860FFF7CBBA45
:10AA10000824FFF7C8BA0424FFF7C5BA0424FFF7D7
:10AA2000C2BA0424FFF7BFBA0424FFF7BCBA042457
:10AA3000FFF7B9BA1024FFF7B6BA0424FFF7B3BA88
:10AA4000C45FFF1F07B5019201AB02460120FFF76B
:10AA50008AFA03B05DF804FB134602460020FFF7B4
:10AA600082BA014815F03DBFC45FFF1F08B5002042
:10AA700015F0CCF810B1094B987870B1084815F072
:10AA800019FF4FF4003015F04FF90649002318461E
:10AA9000D1E9001214F09EFF012008BD340BFF1F06
:10AAA000C45FFF1FA019FF1F022804BF0B4B93F8C0
:10AAB000F00030B90A4BDB681B685B69094A906893
:10AAC0001847012809D1054B93F8F030012B04D128
:10AAD000034BDB681B689B69F0E77047885EFF1FCC
:10AAE000D89D0200A019FF1F0346052B10B508468C
:10AAF00014460BD006D8022B06D315F0E3F82060DD
:10AB0000002010BD182BF8D00420FAE715F0F6F855
:10AB1000F5E738B50D46044620B915F077F82860FA
:10AB2000204638BD0820FCE7012910B5044608D1AD
:10AB3000044A702115F041FE2046BDE8104015F092
:10AB40008FBE10BDC804050038B50D46044648B98F
:10AB500015F03CF82B68C1182960204614F0B4FEAB
:10AB6000204638BD0820FCE7022806D3052801D975
:10AB7000182802D100201060704704207047054B50
:10AB8000DB6E0846114603B11847034B1B68DB68B0
:10AB9000FAE700BF885EFF1F4862FF1F2DE9F04102
:10ABA0006B4D6C4FD5F890206B4BDFF80C826B4CE3
:10ABB0003846012115F037FE6949384615F0A5FEE3
:10ABC000D8F80C60736803F16802A26003F5947210
:10ABD000226003F5A472626003F5D472226203F569
:10ABE000E472626203F55272E26003F55A7203F591
:10ABF0006A70226103F5627203F57273E361336870
:10AC000062611B69A06198473368E0691B699847D6
:10AC1000336860691B69984733682068DB68984728
:10AC200033686068DB6898473368A068DB689847DA
:10AC300033682069DB6898473368E068DB689847C9
:10AC40003368606ADB6898473368206ADB68984736
:10AC50003368606A9B6998473368206A9B699847A4
:10AC6000336860699B6998473368E0689B699847D7
:10AC7000D8F810203B4B02F114011960736803F5FA
:10AC8000027393614FF4003015F04EF80023D4E9BD
:10AC90000012184614F09EFED5F89030324AC3F8E0
:10ACA0000422324AC3F808220122AF671A80304BCF
:10ACB000C5F89C302F4BC5F898302F4BC5F8943011
:10ACC0002E4BC5F8A0302E4BC5F8B4302D4BC5F82F
:10ACD000B0302D4BC5F8A4302C4BC5F8A8302C4B08
:10ACE000C5F8C4302B4BC5F8C0302B4BC5F8D0305D
:10ACF0002A4BC5F8CC302A4BC5F8C830294BC5F8CB
:10AD0000DC3085F88C204FF4F0733222C5E9213213
:10AD1000254BC5F8D430254BC5F8E8300220244B2C
:10AD2000C5F8EC30FFF7C0FE3368606ADB6898470F
:10AD3000606A204C0423437533681B689847236876
:10AD400098470021A3680846BDE8F041184700BFB6
:10AD5000885EFF1FC45FFF1F94810200A019FF1FC0
:10AD600029AB00004862FF1F6DAA000063AA000023
:10AD70004B9F0000659F0000619F00005D9F0000E9
:10AD800059AA000045AA0000399F000049AB000005
:10AD90002D9F0000ED9E0000019F00001D9E000001
:10ADA00013AB0000A9AA0000A19D000069AB000040
:10ADB000E9AA0000E00AFF1FD89D020038B5184B31
:10ADC000184CDD6820682B685B6998472B686068C1
:10ADD0009B6898472B68A0689B6898472B68E06839
:10ADE0009B6898472B6820699B6898472B68606927
:10ADF0009B6898472B68A0699B6898472B68E06917
:10AE00009B6898472B68206A9B68984715F004F860
:10AE1000054B5B689847002384F8243038BD00BF99
:10AE2000D89D0200D419FF1FE00AFF1F10B5034888
:10AE3000144615F0ECFD206010BD00BF5062FF1FEE
:10AE4000014815F0D6BD00BF5062FF1F10B5044683
:10AE500018B914F039FD204610BD0820FCE710B5E4
:10AE6000044618B914F00AFD204610BD0820FCE77E
:10AE70000021F4E74942F2E7F1E770B504461D46C8
:10AE80000E46002940F04E85A52A00F08F8256D844
:10AE9000172A00F0478126D8042A00F0E8800ED84F
:10AEA000012A00F0AD80002A00F09E80022A00F006
:10AEB000B280032A00F0BA800424204670BD072A1D
:10AEC00000F0068107D8052A00F0DF80062A00F08E
:10AED000E7800424F1E7082A00F01181152A00F028
:10AEE00017810424E9E7322A00F0B28113D81B2A23
:10AEF00000F0638107D8182A00F039811A2A00F07F
:10AF000044810424D9E71C2A00F06F811D2A00F037
:10AF100086810424D1E7A22A00F0008207D8332AD0
:10AF200000F0A1818C2A00F0A9810424C5E7A32A9E
:10AF300000F00C82A42A00F021820424BDE7B42A88
:10AF400000F0B58324D8AA2A00F018830CD8A72AC9
:10AF500000F0CE82C0F08682A82A00F0E082A92A02
:10AF600000F0F4820424A8E7AD2A00F0518307D84A
:10AF7000AB2A00F01B83AC2A00F0308304249CE74A
:10AF8000AE2A00F05D83B32A00F07983042494E7AD
:10AF9000BB2A00F0278413D8B82A00F0C88307D84A
:10AFA000B52A00F09083B62A00F09A83042484E73F
:10AFB000B92A00F0D683BA2A00F0ED8304247CE796
:10AFC000C02A00F06C8407D8BC2A00F03384BF2A62
:10AFD00000F04684042470E7CC2A00F07B84CE2A5B
:10AFE00000F09684042468E720B9002014F0FEFDE8
:10AFF000286062E71968002014F066FC00245CE712
:10B0000018B914F0E3FD286057E71968304614F0CA
:10B010007DFD344651E718B914F008FE28604CE76E
:10B020001968002014F02AFC002446E7002840F0AC
:10B030007C8414F039FE18B914F0E8FD28603CE770
:10B04000204614F03FFE12210646B14815F0DFFC01
:10B05000C0F313027A20D317A6FB00011CF0A2FC58
:10B0600000F11303262B98BF0020286025E718B9AC
:10B0700014F0FCFD286020E719680029B8BF494298
:10B08000304614F05FFD344617E718B914F0DEFDC2
:10B09000286012E71968002014F003FF00240CE771
:10B0A00010219B482CB915F0B2FCC0F30420286095
:10B0B00003E715F0ACFC2B681B0203F4F85320F4F3
:10B0C000F8521A431021924815F093FC0024F4E63C
:10B0D00010218F482CB915F09AFC00F01F00286051
:10B0E000EBE615F094FC2B6820F01F0203F01F0321
:10B0F0001A431021864815F07CFC3446DDE6002812
:10B1000040F0168414F03EFCC0F300102860D4E632
:10B11000002800F010841A687D48112115F069FCA0
:10B120000024CAE67B4E80B91521794815F06FFCE2
:10B1300048B14FF0807393FBF0F0B042A8BF3046A7
:10B1400028600024B9E63046FAE71B686BB14FF07F
:10B15000807292FBF3F2B242A8BF32462A601521F8
:10B160006B4815F046FC0024A7E63246F6E728B9FE
:10B170003321674815F04BFC28609EE61A68644846
:10B18000332115F036FC002497E66C2160482CB979
:10B1900015F03DFCC0F3804028608EE615F037FCCA
:10B1A0002B689B0403F4802320F480221A436C2133
:10B1B000574815F01EFC00247FE66C2154482CB93A
:10B1C00015F025FCC0F3C040286076E615F01FFCA2
:10B1D0002B68DB0403F4002320F400221A436C21C3
:10B1E0004B4815F006FC344667E638B90146484836
:10B1F00015F00DFCC0F3400028605EE600214448D5
:10B2000015F005FC2B685B0003F0020320F002023E
:10B210001A4300213E4815F0ECFB00244DE60028BF
:10B2200040F08C8314F04EFD12210646384815F08C
:10B23000EEFBC0F313027A20D317A6FB00011CF02B
:10B24000B1FB00F11303262B98BF0020286034E6E1
:10B2500018B914F029FD28602FE61978304614F04B
:10B260008DFC344629E618B914F02CFD286024E63C
:10B270001968002014F092FC00241EE650B96C21DD
:10B28000234815F0C4FB4FF48073C0F303600341FF
:10B290002B6012E61B68102B35D00FDC022B2ED052
:10B2A00006DC012B18D04FF0FF332B60102404E68E
:10B2B000042B26D0082BF6D105230EE0402B24D0FA
:10B2C00003DC202BEFD1032307E0802B24D0B3F540
:10B2D000807FE8D1002300E008232B606C210C481C
:10B2E00015F095FB2B681B0603F0706320F070626D
:10B2F0001A436C21064815F07CFB0024DDE507238A
:10B30000EBE70623E9E70423E7E70223E5E700BFCD
:10B310005062FF1FFFFF0F000123DEE76C21BB48D7
:10B320002CB915F074FBC0F3C1302860C5E515F0E9
:10B330006EFB2B68DB0303F4C03320F4C0321A43E6
:10B340006C21B24815F055FB3446B6E56C21AF4888
:10B350002CB915F05CFBC0F380302860ADE515F02A
:10B3600056FB2B689B0303F4804320F480421A436E
:10B370006C21A64815F03DFB00249EE56C21A348F6
:10B380002CB915F044FBC0F30030286095E515F0AA
:10B390003EFB2B681B0303F4805320F480521A43B6
:10B3A0006C219A4815F025FB002486E56C2197480E
:10B3B00004BB15F02CFB10F480464FF06C01934851
:10B3C00005D015F024FBC0F3C310286075E515F017
:10B3D0001EFB6C2104468D4815F019FB2205C0F3B5
:10B3E000021002D42860002467E540F008002860BD
:10B3F000344662E515F00BFB10F480444FF06C010D
:10B4000082480ED015F003FB2B68DB0103F4F063D8
:10B4100020F4F0621A436C217C4815F0EAFA3446B5
:10B420004BE515F0F4FA6C21784815F0F0FA2A682B
:10B43000120220F4006002F4006202436C2173489F
:10B4400015F0D7FA6C21714815F0E1FA2B681B0151
:10B4500003F0700320F070021A436C216B4815F062
:10B46000C8FA2AE56C216948ECB915F0D0FA10F455
:10B4700080444FF06C01654806D015F0C8FAC0F35F
:10B4800002102860002418E515F0C1FA6C21064668
:10B490005E4815F0BCFA3305C0F3C310A2D540F0E6
:10B4A0000800286009E515F0B2FA10F480444FF066
:10B4B0006C0156480ED015F0AAFA2B681B0103F058
:10B4C000700320F070021A436C21504815F091FA75
:10B4D0000024F2E415F09BFA2B68DB0103F4F0631F
:10B4E00020F4F0621A436C21484815F082FAE4E433
:10B4F0006C2146482CB915F08AFA00F00F0028603C
:10B50000DBE415F084FA2B6820F00F0203F00F0340
:10B510001A436C213D4815F06CFA3446CDE46D2198
:10B520003A482CB915F073FAC0F3C0302860C4E46F
:10B5300015F06DFA2B68DB039BB220F400421A432E
:10B540006D21324815F055FA0024B6E46D212F48DC
:10B550002CB915F05CFAC0F341302860ADE415F069
:10B5600056FA2B685B0303F4C04320F4C0421A432D
:10B570006D21264815F03DFA00249EE46D212348F4
:10B580002CB915F044FAC0F30320286095E415F0B7
:10B590003EFA2B681B0203F4706320F470621A43B6
:10B5A0006D211A4815F025FA344686E46D211748B6
:10B5B0002CB915F02CFAC0F3411028607DE415F089
:10B5C00026FA2B685B0103F0600320F060021A4347
:10B5D0006D210E4815F00DFA00246EE46D210B4824
:10B5E0002CB915F014FA00F00F00286065E415F08E
:10B5F0000EFA2B6820F00F0203F00F031A436D219F
:10B60000024815F0F6F9002457E400BF5062FF1F0E
:10B610006D21BD482CB915F0FAF9C0F3006028601F
:10B620004BE415F0F4F92B681B0603F0807320F04F
:10B6300080721A436D21B44815F0DBF934463CE4BE
:10B640006D21B14864B915F0E2F9001400F07F03F0
:10B6500010F0400018BF6FF07F00184328602CE402
:10B6600015F0D5F92B681B0403F4FE0320F4FE0249
:10B670001A436D21A44815F0BCF900241DE46C2187
:10B68000A1482CB915F0C3F9C0F34040286014E478
:10B6900015F0BDF92B685B0403F4003320F400328D
:10B6A0001A436C21984815F0A4F9002405E40028F9
:10B6B00040F047816F21944815F0A9F9C0F3044088
:10B6C0002860FFF7FABB20B914F0E0FA2860FFF712
:10B6D000F4BB1968002014F043FA0024FFF7EDBB17
:10B6E0008A4E88B91421884815F091F950B14FF06D
:10B6F000807393FBF0F0B042A8BF3046286000246E
:10B70000FFF7DBBB3046F9E71B6873B14FF080727F
:10B7100092FBF3F2B242A8BF32462A6014217A4863
:10B7200015F067F90024FFF7C8BB3246F5E76C2136
:10B73000754834B915F06BF9C0F340302860FFF755
:10B74000BCBB15F064F92B685B0303F4005320F4D1
:10B7500000521A436C216C4815F04BF93446FFF740
:10B76000ACBB6C21684834B915F051F9C0F30350F3
:10B770002860FFF7A2BB15F04AF92B681B0503F4FC
:10B78000700320F470021A436C215F4815F031F900
:10B790000024FFF792BB5D4E88B913215A4815F07B
:10B7A00036F950B14FF0807393FBF0F0B042A8BF70
:10B7B000304628600024FFF780BB3046F9E71B685D
:10B7C00073B14FF0807292FBF3F2B242A8BF3246DF
:10B7D0002A6013214C4815F00CF90024FFF76DBBCB
:10B7E0003246F5E77021484834B915F010F9C0F336
:10B7F00007202860FFF761BB15F009F92A681202DB
:10B8000020F47F4092B2024370213F4815F0F1F8D6
:10B8100031463D4815F0FBF82B68002B20F0040260
:10B8200018BF04231A433146374815F0E2F834466E
:10B83000FFF743BB702134482CB915F0E8F8C0B2CB
:10B840002860FFF73ABB15F0E2F82A7820F0FF00F5
:10B85000024370212C4815F0CCF80024FFF72DBBD3
:10B8600040B97021284815F0D2F8C0F30140286093
:10B87000FFF723BB1B68032B66D87021224815F005
:10B88000C6F82B681B0403F4403320F440321A43FB
:10B8900070211D4815F0ADF80024FFF70EBB702194
:10B8A000194834B915F0B3F8C0F380402860FFF7A9
:10B8B00004BB15F0ACF82B68002B20F4802218BFD5
:10B8C0004FF480231A4370210F4815F092F8344644
:10B8D000FFF7F3BA70210C4834B915F098F8C0F3AB
:10B8E00001502860FFF7E9BA15F091F82B681B05A5
:10B8F00003F4401320F440121A437021024815F05B
:10B9000078F80024FFF7D9BA5062FF1FFFFF0F003D
:10B91000E8B96F210F4815F07AF8C0F309002860E4
:10B92000FFF7CBBA0824FFF7C8BA0424FFF7C5BA5B
:10B930000424FFF7C2BA0424FFF7BFBA0424FFF7B8
:10B94000BCBA0424FFF7B9BA1024FFF7B6BA04242E
:10B95000FFF7B3BA5062FF1F07B5019201AB024671
:10B960000120FFF78AFA03B05DF804FB1346024694
:10B970000020FFF782BA014815F0C1B85062FF1FDE
:10B9800008B5002014F042F910B1094B987870B155
:10B99000084815F0A1F84FF4003014F0C5F9064935
:10B9A00000231846D1E9011214F014F8012008BD53
:10B9B000340BFF1F5062FF1FD419FF1F022804BF62
:10B9C0000B4B93F8F00030B90A4BDB681B685B69DE
:10B9D000094A10681847012809D1054B93F8F0303F
:10B9E000012B04D1034BDB681B689B69F0E77047B0
:10B9F000885EFF1FD89D0200D419FF1F10B51446A2
:10BA0000062805D8DFE800F006181627323741006F
:10BA1000042010BD136844F62062934239D842F2E4
:10BA20001172B3FBF2F102FB11311B4B89B29B681F
:10BA3000002098470020ECE7184B2468DA68D2E928
:10BA4000003000F5F4701CB1DB6900219847F1E784
:10BA50009B689847EEE7114B1168DB68104A1B683A
:10BA60005069DB69003118BF0121EFE7084613F088
:10BA700089FF2060DEE7094B094ADB6858681B68CC
:10BA800000F594705061DB68E3E70220FFF796FF52
:10BA9000D0E71020BDE700BFE00AFF1FD89D0200DD
:10BAA000D419FF1F0346052B10B5084614460BD0CA
:10BAB00006D8022B06D314F005F92060002010BD33
:10BAC000182BF8D00420FAE714F018F9F5E738B588
:10BAD0000D46044620B914F099F82860204638BD78
:10BAE0000820FCE738B5194C054694F824000128D5
:10BAF0001CD002281FD02946154815F018F8002040
:10BB000013F0FAFE002013F03DFF10F008041BD1E3
:10BB1000820619D56F210E4814F079FFC30113D5A1
:10BB200020460221BDE8384013F006BFA56202237B
:10BB300084F82430DFE7A36AEB1AB3F5FA6FDAD999
:10BB4000FFF73CFF0323F3E738BD00BFD419FF1F05
:10BB50005062FF1F012910B504460DD1074A70211C
:10BB600014F047FF2046064A0A2114F042FF2046FF
:10BB7000BDE8104014F08CBF10BD00BF1E000CC407
:10BB80000004080038B50D46044648B914F01EF804
:10BB90002B68C1182960204613F096FE204638BD58
:10BBA0000820FCE7022806D3052801D9182802D16D
:10BBB00000201060704704207047054BDB6E08467C
:10BBC000114603B11847034B1B68DB68FAE700BF57
:10BBD000885EFF1F4C62FF1F2DE9F0415C4C5D4FFA
:10BBE000D4F890205C4BDFF8D0815C4D38460121C1
:10BBF00014F031FF5A49384614F095FFD8F80C601C
:10BC0000736803F168022A6003F594726A6003F5B1
:10BC1000A472AA6003F5E472EA6003F552722A6125
:10BC200003F55A7203F562706A6103F56A7203F5EF
:10BC300072732B623368EA611B69A86198473368A5
:10BC40002868DB68984733686868DB68984733681A
:10BC5000A868DB6898473368E868DB68984733680A
:10BC60006869DB68984733682869DB6898473368F8
:10BC7000E8685B6998473368A8699B6998473368A7
:10BC800028699B699847D8F81020364B02F11401B7
:10BC90001960736803F5027393614FF4003014F078
:10BCA00043F80023D5E90112184613F093FED4F8A7
:10BCB00090202D4BC2F804322C4BC2F808320123DD
:10BCC000A76713802A4AC4F89C202A4AC4F89820FF
:10BCD000294AC4F89420294AC4F8A020284AC4F864
:10BCE000B420284AC4F8B020274AC4F8A420274A20
:10BCF000C4F8A820264AC4F8C420264AC4F8C020A4
:10BD0000254AC4F8D020254AC4F8CC20244AC4F8D7
:10BD1000C820244AC4F8DC2032214FF4F072C4E970
:10BD20002121214AC4F8D420204AC4F8E820204A1E
:10BD300084F88C30C4F8EC201E4C85F8243023683D
:10BD400098470021A3680846BDE8F041184700BFA6
:10BD5000885EFF1F5062FF1F94830200D419FF1FEB
:10BD600055BB00004C62FF1F81B9000077B900008D
:10BD70005FAE000079AE000075AE000071AE00004D
:10BD80006DB9000059B900004DAE000085BB000040
:10BD900041AE00002DAE0000E5BA0000FDB9000084
:10BDA000CFBA0000BDB90000BDAD0000A5BB0000CA
:10BDB000A5BA0000E00AFF1FD89D0200024B002236
:10BDC000C3F88020704700BF885EFF1F014814F051
:10BDD000EBBE00BF0C1AFF1F10B50348144614F049
:10BDE00016FF206010BD00BF0C1AFF1F38B51546A6
:10BDF000044628B9084613F0C5FD2860204638BD22
:10BE00000420FCE710B5044618B913F05DFD204688
:10BE100010BD0820FCE710B5044618B913F02EFD3C
:10BE2000204610BD0820FCE70021F4E74942F2E774
:10BE3000F1E7014814F0A8BF0C1AFF1F10B54FF42A
:10BE40000030074C13F070FF0023D4E9A21218460B
:10BE500013F0C0FD2046BDE8104014F07EBF00BFC7
:10BE60000C1AFF1F022804BF0C4B93F8F00038B9DE
:10BE70000B4BDB681B685B690A4AD2F884021847DF
:10BE8000012809D1054B93F8F030012B04D1044B64
:10BE9000DB681B689B69EFE7704700BF885EFF1F88
:10BEA000D89D02000C1AFF1F38B50020FFF7DAFFFB
:10BEB000144B154CDD68D4F884022B689B689847B6
:10BEC0002B68D4F888029B6898472B68D4F88C02BA
:10BED0009B6898472B68D4F890029B6898472B681A
:10BEE000D4F894029B6898472B68D4F898029B6812
:10BEF00098472B68D4F89C029B689847BDE8384067
:10BF000013F08ABFD89D02000C1AFF1F08B5014626
:10BF1000034814F0D7FE0020BDE8084013F0ECBC45
:10BF20000C1AFF1F38B50D46044648B913F04EFEF3
:10BF30002B68C1182960204613F0C6FC204638BD86
:10BF40000820FCE708B519BB052823D8DFE800F076
:10BF500003090E22131B1146002013F0B5FC00202C
:10BF600008BD1146002013F0D1FDF8E7114600206E
:10BF700013F084FCF3E782EAE271A1EBE2710020A6
:10BF800013F0E0FDEBE71146002013F08AFFE6E72F
:10BF90000820E5E70420E3E710B5144629BB06288E
:10BFA00025D8DFE800F0040A0E12161A1E00002041
:10BFB00013F01CFE2060002010BD002013F006FED0
:10BFC000F8E7002013F032FEF4E7002013F01EFE25
:10BFD000F0E7002013F04AFEECE7002013F036FEF5
:10BFE000E8E7044814F0D9FEE4E70820E4E7042079
:10BFF000E2E700BF0C1AFF1F0248DBB2D0F8A00234
:10C0000012F028B80C1AFF1F012214F0B1B870B555
:10C010000122534E534C1146072014F04DF8F56899
:10C020006B6803F59472C4F8882203F5A472C4F80F
:10C030008C2203F1C802C4F8902203F1E80203F154
:10C040006800C4F8942203F18802A833C4F89C3233
:10C050002B68C4F89822DB68C4F8840298472B68E0
:10C06000D4F88802DB6898472B68D4F88C02DB6828
:10C0700098472B68D4F89002DB6898472B68D4F86F
:10C080009402DB6898472B68D4F898021B6998479C
:10C090002B68D4F89C021B699847F36AC4F8A03255
:10C0A00000251D705B6898472F4B3049D3F89020CE
:10C0B000C2F804122E49C2F8081201262D49168032
:10C0C000C3F89C102C49C3F898102C49C3F894105D
:10C0D0002B49C3F8A0102B49C3F8B4102A49C3F860
:10C0E000B0102A49C3F8A4102949C3F8A810294957
:10C0F000C3F8C4102849C3F8C0102849C3F8CC10AD
:10C100002749C3F8DC102749C3F8D81032204FF470
:10C11000C371C3E921102449C3F8D410234983F81B
:10C120008C60C3F8D01020462946214B14F0AEFD98
:10C130004FF4003013F0F8FDD4E9A2122B46284644
:10C1400013F048FC28464FF4484113F0FBFC284606
:10C150004FF4484113F0A5FE3046BDE8704081E63B
:10C16000D89D02000C1AFF1F885EFF1F3DBE000015
:10C1700033BE000017BE000031BE00002DBE00001F
:10C1800029BE000099BF000045BF000005BE0000A9
:10C1900025BF0000CDBD0000D9BD0000EDBD0000F1
:10C1A00065BE0000BDBD0000A9BE00000DBF0000BF
:10C1B00094850200024B0022C3F88020704700BF24
:10C1C000885EFF1F014814F0EBBD00BFBC1CFF1FC1
:10C1D00010B50348144614F01AFE206010BD00BFCD
:10C1E000BC1CFF1F08B50146034814F073FE002075
:10C1F000BDE8084013F080BBBC1CFF1F10B50B4608
:10C20000144606286AD8DFE800F004090F131B283B
:10C210004A00084613F0B6FB206003E0217830485E
:10C2200014F0C6FE002010BD2D4814F0BEFEF3E74A
:10C230002C4B0220DB6898475023B0FBF3F0EBE770
:10C2400023684FF4FA5159436423B1FBF3F1254BB2
:10C2500089B29B6802209847E4E72168204A013BA5
:10C2600001F00301D2F88802042B06D8DFE803F0BE
:10C27000030B0E111400D2F88C021B4BDB681B68F9
:10C28000DB699847CEE7D2F89802F6E7D2F89C022D
:10C29000F3E7D2F8A802F0E7D2F8AC02EDE71049D4
:10C2A000013BD1F88802042B06D8DFE803F0030B2A
:10C2B0000E111400D1F88C020B4BDB681B681B6A53
:10C2C0009847A9E7D1F89802F6E7D1F89C02F3E77E
:10C2D000D1F8A802F0E7D1F8AC02EDE70420A2E71C
:10C2E000BC1CFF1FE00AFF1FD89D020010B50446CA
:10C2F00018B913F0E9FA204610BD0820FCE710B584
:10C30000044618B913F0BAFA204610BD0820FCE71D
:10C310000021F4E74942F2E7F1E770B504461D4613
:10C320000E46002940F03783A62A00F0E48162D847
:10C33000082A00F021811CD8032A00F0DB800BD8EA
:10C34000012A00F0C98040F2BB80002840F0CD8077
:10C35000002013F06BFCB7E0052A00F0DE80C0F08F
:10C36000CF80062A00F0E280072A00F0F58004243E
:10C3700060E1322A00F045811AD81C2A00F01581AC
:10C380001D2A00F02481172AF1D1B949B94A0028A1
:10C3900040F0FC80D1F8B012002900F0F5804FF099
:10C3A000807393FBF1F39342A8BF13462B6091E097
:10C3B0008C2A00F0348107D8332AD8D1002840F0E5
:10C3C000298113F07FFC7FE0A22A00F07581A52A65
:10C3D000CDD10028CBD16C21A54814F018FD10F464
:10C3E000804F4FF06C01A24800F0778114F00FFDF0
:10C3F000C0F3C31068E0B42A00F0258226D8AA2A28
:10C4000000F0E1810ED8A82A00F0C28140F2B0818C
:10C4100042219748002C40F0CD8114F0F8FCC0F385
:10C42000413051E0AC2A00F0F081C0F0DD81AE2A4D
:10C4300000F0F781B32A9AD16C218D48002C40F08E
:10C44000F98114F0E4FCC0F340403DE0BB2A00F069
:10C450004A8219D8B62A00F01882C0F0FE81BA2AA2
:10C4600085D1844E002840F030821321804814F09A
:10C47000CEFC002800F027824FF0807393FBF0F091
:10C48000B042A8BF3046BAE0C02A00F05D820CD8A6
:10C49000BF2A7FF46CAF002840F0458270217448B9
:10C4A00014F0B5FCC0F301400EE0CC2A00F062822B
:10C4B000CE2A7FF45CAF00287FF459AF4121B2E16E
:10C4C00020B9002013F092FB2860B3E01968002027
:10C4D00013F0FAF90024ADE010B913F077FBF3E79D
:10C4E0001968304613F012FBF4E71968002013F0C6
:10C4F000C5F9EFE700287FF43AAF13F087FBE3E7D5
:10C5000018B9002013F0B2FBDEE719680029B8BFA4
:10C510004942002013F016FBDCE710B913F096FB3C
:10C52000D2E71968304613F0BCFCD3E7102150481D
:10C5300024B914F06CFCC0F30420C5E714F067FCC8
:10C540002B681B0203F4F85320F4F8521A4310210D
:10C55000474814F025FCBDE71021454824B914F0E4
:10C5600056FC00F01F00AFE714F051FC2B6820F0E0
:10C570001F0203F01F03E9E700287FF4F8AE13F071
:10C5800001FAC0F300109FE713460FE7186850B197
:10C590004FF0807393FBF0F39342A8BF13462B60D8
:10C5A000C1F8B03296E71346F9E7314824B914F0E0
:10C5B0002EFCC0F3400087E714F029FC2B685B00D9
:10C5C00003F0020320F002021A433146C0E70028BC
:10C5D0007FF4CDAE002013F075FB122104462448F1
:10C5E00014F015FCC0F313027A20D317A4FB00014A
:10C5F0001BF0D8F900F11303262B98BF0020286008
:10C6000068E710B913F050FB5EE71978304613F075
:10C61000B5FA5FE71968002013F0C0FA5AE758B975
:10C620006C21134814F0F3FB4FF48073C0F30360E4
:10C6300003412B60204670BD1B68102B36D00FDCE9
:10C64000022B2FD006DC012B1DD04FF0FF332B60C7
:10C650001024EFE7042B27D0082BF6D1052313E095
:10C66000402B25D008DC202BEFD103230CE000BFAA
:10C67000BC1CFF1FFFFF0F00802B1BD0B3F5807F7A
:10C68000E3D1002300E008232B606C21B24814F0B2
:10C69000BEFB2B681B0603F0706320F070621A4328
:10C6A0006C2155E70723EFE70623EDE70423EBE7CB
:10C6B0000223E9E70123E7E76C21A74824B914F036
:10C6C000A6FBC0F3C130FFE614F0A1FB2B68DB032F
:10C6D00003F4C03320F4C032E1E714F098FB6C217E
:10C6E00006469D4814F093FB3205C0F3021086D530
:10C6F00040F00800E8E66C219748D4B914F087FBB5
:10C7000010F480464FF06C01934804D014F07FFB86
:10C71000C0F30210D8E614F07AFB6C2104468E4870
:10C7200014F075FB2305C0F3C31048BF40F00800A8
:10C7300065E714F06CFB10F480444FF06C01864800
:10C7400008D014F064FB2B681B0103F0700320F089
:10C750007002A4E714F05BFB2B68DB0103F4F063C9
:10C7600020F4F0621A436C217B4814F019FB61E756
:10C770006C21794824B914F04AFB00F00F00A3E6BD
:10C7800014F045FB2B6820F00F0203F00F0386E73F
:10C790004221714824B914F03AFBC0F3C03093E64B
:10C7A00014F035FB2B68DB039BB220F400421A43E4
:10C7B0004221CDE614F02BFB2B685B0303F4C0434E
:10C7C00020F4C042F3E74221634824B914F01FFB70
:10C7D000C0F3032078E614F01AFB2B681B0203F465
:10C7E000706320F47062E2E742215B4824B914F0E0
:10C7F0000EFBC0F3411067E614F009FB2B685B01E8
:10C8000003F0600320F06002D1E742215248002C7F
:10C81000B1D014F0FCFA2B6820F00F0203F00F03E4
:10C82000C5E720B940214C4814F0F1FA4CE61A68EB
:10C8300040218DE614F0EBFA2B685B0403F400331F
:10C8400020F400322BE700287FF491AD6F2142489D
:10C8500014F0DDFAC0F3044036E618B9002013F0F6
:10C8600015FA31E61968002013F07AF92B683B4974
:10C87000B3EBE30325D04FF0807292FBF3F28A42D0
:10C88000A8BF0A462A60142162E678B9142132480A
:10C8900014F0BDFA40B14FF0807393FBF0F02F4BD2
:10C8A0009842A8BF1846AAE62C48A8E61B6843B1E0
:10C8B0004FF0807292FBF3F2284B9A42A8BF1A46BF
:10C8C000E0E7264ADEE7304699E61B684BB14FF0B9
:10C8D000807292FBF3F2B242A8BF32462A60132163
:10C8E00036E63246FAE770211B4824B914F08FFA75
:10C8F000C0F30720E8E514F08AFA2A68120220F44F
:10C900007F4092B202437021134814F049FA314635
:10C91000114814F07CFA2B68002B20F00402D4BFDD
:10C920000423002350E61B68032B3FF691AE7021D1
:10C93000094814F06CFA2B681B0403F4403320F40C
:10C9400040321A43702103E67021034844B914F0C1
:10C950005EFAC0F38040B7E5BC1CFF1FFFFF0F006D
:10C9600014F055FA2B68002B20F4802218BF4FF4E6
:10C970008023E6E77021094824B914F048FAC0F38F
:10C980000150A1E514F043FA2B681B0503F4401392
:10C9900020F44012D5E708244CE600BFBC1CFF1F62
:10C9A00007B5019201AB02460120FFF7B6FC03B0C8
:10C9B0005DF804FB134602460020AEE4014814F083
:10C9C000EBBA00BFBC1CFF1F10B5084C4FF4003081
:10C9D00013F0AAF9D4F8A032D4E9A412002012F07E
:10C9E000F9FF2046BDE8104014F0BFBABC1CFF1F81
:10C9F000022804BF0C4B93F8F00038B90B4BDB68EE
:10CA00001B685B690A4AD2F888021847012809D1D5
:10CA1000054B93F8F030012B04D1044BDB681B6805
:10CA20009B69EFE7704700BF885EFF1FD89D02003B
:10CA3000BC1CFF1F70B50020FFF7DAFF1D4B1E4C1A
:10CA4000DD68D4F888022B689B6898472B68D4F877
:10CA50008C029B6898472B68D4F890029B68984793
:10CA60002B68D4F894029B6898472B68D4F89802F6
:10CA70009B6898472B68D4F89C029B6898472B6862
:10CA8000D4F8A0029B6898472B68D4F8A4029B684E
:10CA900098472B68D4F8AC029B6898472B68D4F869
:10CAA000A8029B68984713F0B7F9044BBDE87040A3
:10CAB0005B681847D89D0200BC1CFF1FE00AFF1FDF
:10CAC00038B50D46044648B913F080F82B68C118F4
:10CAD0002960204612F0F8FE204638BD0820FCE709
:10CAE0000248DBB2D0F8B40211F0B4BABC1CFF1F8C
:10CAF000012213F03DBBF7B501226B4F6B4C114681
:10CB0000072013F0D9FAFD686B6803F5B472C4F816
:10CB10008C2203F59472C4F8902203F5A472C4F831
:10CB2000942203F1C802C4F8982203F1E802C4F881
:10CB30009C2203F1880203F16800C4F8A02203F1EB
:10CB4000A80203F5C473C4E9AA302B68C4F8A42270
:10CB50000026DB68C4F8B062C4F8880298472B68E6
:10CB6000D4F88C02DB6898472B68D4F89002DB6815
:10CB700098472B68D4F89402DB6898472B68D4F860
:10CB80009802DB6898472B68D4F89C02DB689847CA
:10CB90002B68D4F8A0021B6998472B68D4F8A4022C
:10CBA0001B6998472B68D4F898029B6998472B68B3
:10CBB000D4F89C029B699847FB6AC4F8B4320127F9
:10CBC0001F705B6898473A4A3A49D2F8903082F829
:10CBD0008C70C3F804123849C3F808123749C2F8F8
:10CBE0009C103749C2F898103649C2F8941036495B
:10CBF000C2F8A0103549C2F8B4103549C2F8B010D7
:10CC00003449C2F8A4103449C2F8A8103349C2F814
:10CC1000C4103349C2F8C0103249C2F8CC103249AE
:10CC2000C2F8DC103149C2F8D81032204FF4C37179
:10CC3000C2E921102E49C2F8D4102E49C2F8D010F2
:10CC40002D4A009231463246204614F023F94FF423
:10CC5000003013F069F8D4E9A412D4F8A0323046B9
:10CC600012F0B8FE30464FF4484112F06BFF4FF41B
:10CC70004841304613F015F92B68D4F8A802DB6858
:10CC80009847D4F8A8021D4C042343752B681B68F1
:10CC9000984723689847A36831460220984738464A
:10CCA00003B0BDE8F040A3E6D89D0200BC1CFF1F06
:10CCB000885EFF1FC9C90000BDC90000FFC2000097
:10CCC00019C3000015C3000011C30000B5C900005E
:10CCD000A1C90000EDC20000C1CA0000C5C100002A
:10CCE000D1C10000FDC10000F1C90000B5C10000C4
:10CCF00035CA0000E5C1000094870200E00AFF1F6A
:10CD0000024B0022C3F88020704700BF885EFF1FDF
:10CD1000074870B550F8044B0D46164614F0A9F9B3
:10CD200033462A4601462046BDE8704011F0FDB961
:10CD3000801FFF1F074870B550F8044B0D4616467C
:10CD400014F097F933462A4601462046BDE8704064
:10CD500011F0A4B9801FFF1F38B51546044628B945
:10CD6000084612F00FFE2860204638BD0420FCE77C
:10CD700010B5044618B912F0A7FD204610BD0820D2
:10CD8000FCE710B5044618B912F078FD204610BD36
:10CD90000820FCE70021F4E74942F2E7F1E7024B03
:10CDA000D3F8940214F05DB9801FFF1F10B54FF443
:10CDB0000030074C12F0B8FF0023D4E9A712184640
:10CDC00012F008FED4F89402BDE8104014F041B906
:10CDD000801FFF1F022804BF0C4B93F8F00038B9E6
:10CDE0000B4BDB681B685B690A4AD2F8980218474C
:10CDF000012809D1054B93F8F030012B04D1044BE5
:10CE0000DB681B689B69EFE7704700BF885EFF1F08
:10CE1000D89D0200801FFF1F38B50020FFF7DAFF02
:10CE2000164B174CDD68D4F898022B689B6898471E
:10CE30002B68D4F89C029B6898472B68D4F8A00212
:10CE40009B6898472B68D4F8A4029B6898472B6886
:10CE5000D4F8A8029B6898472B68D4F8AC029B686A
:10CE600098472B68D4F8B0029B68984723689B6862
:10CE70009847BDE8384012F0CFBF00BFD89D0200F0
:10CE8000801FFF1F08B5064A0146D2F894320020E1
:10CE9000043214F0CFF80020BDE8084012F02CBD99
:10CEA000801FFF1F38B50D46044648B912F08EFEAC
:10CEB0002B68C1182960204612F006FD204638BDB7
:10CEC0000820FCE708B549BB062829D8DFE800F0B0
:10CED000040A0F28141C21001146002012F0F4FC53
:10CEE000002008BD1146002012F010FEF8E71146A0
:10CEF000002012F0C3FCF3E782EAE271A1EBE271D9
:10CF0000002012F01FFEEBE71146002012F0C9FFCF
:10CF1000E6E7D1B2034814F0AFF8E1E70820E0E714
:10CF20000420DEE7841FFF1F10B5144629BB062826
:10CF300025D8DFE800F0040A0E12161A1E000020A1
:10CF400012F054FE2060002010BD002012F03EFEC2
:10CF5000F8E7002012F06AFEF4E7002012F056FE17
:10CF6000F0E7002012F082FEECE7002012F06EFEE7
:10CF7000E8E7044814F07DF8E4E70820E4E704203B
:10CF8000E2E700BF841FFF1F70B50122514C524ED3
:10CF90001146072013F090F8201D14F00DF8F568E5
:10CFA0006B6803F59472C4F89C2203F5A472C4F86C
:10CFB000A02203F1C802C4F8A42203F1E80203F19D
:10CFC0006800C4F8A82203F18802A833C4F8B0327C
:10CFD0002B68C4F8AC22DB68C4F8980298472B6829
:10CFE000D4F89C02DB6898472B68D4F8A002DB6871
:10CFF00098472B68D4F8A402DB6898472B68D4F8CC
:10D00000A802DB6898472B68D4F8AC021B699847E4
:10D010002B68D4F8B0021B699847F36A23605B68F9
:10D0200098472E4B2E49D3F89020C4F8942201251E
:10D03000C2F804122B491580C2F808122A4AC3F814
:10D040009C202A4AC3F89820294AC3F89420294AE8
:10D05000C3F8A020284AC3F8B420284AC3F8B02057
:10D06000274AC3F8A420274AC3F8A820264AC3F8B1
:10D07000C420264AC3F8C020254AC3F8CC20254A3C
:10D08000C3F8DC20244AC3F8D82032214FF4C372FD
:10D09000C3E92121214AC3F8D4204FF40030204AAB
:10D0A00083F88C50C3F8D02012F03EFE0023D4E960
:10D0B000A712184612F08EFC4FF44841002012F0DF
:10D0C00041FD00204FF4484112F0EBFE2846BDE838
:10D0D00070407FE6801FFF1FD89D0200885EFF1F03
:10D0E000ADCD00009FCD000083CD00009DCD0000A0
:10D0F00099CD000095CD000029CF0000C5CE0000DD
:10D1000071CD0000A5CE000011CD000035CD00008E
:10D1100059CD0000D5CD000001CD000019CE000092
:10D1200085CE0000024B0022C3F88020704700BF6C
:10D13000885EFF1F014813F0A3BF00BF4022FF1FFE
:10D1400010B50348144613F0CEFF206010BD00BF99
:10D150004022FF1F10B5044618B912F0B5FB204657
:10D1600010BD0820FCE710B5044618B912F086FB84
:10D17000204610BD0820FCE70021F4E74942F2E711
:10D18000F1E7F8B506461D460C46002940F06E82D0
:10D19000332A00F0228140D8052A00F0C08017D839
:10D1A000022A00F0A58007D8002A00F08C80012A0E
:10D1B00000F09480042624E1032A00F0A280042ACF
:10D1C000F8D1002840F0A380002012F04FFD7DE050
:10D1D000082A00F0CB800ED8062A00F0A980072A82
:10D1E000E8D11021BA48002E40F0B88013F07BFF40
:10D1F00000F01F006AE01D2A00F0CD80322A00F006
:10D20000E2801C2AD6D1002840F0B8800146B04800
:10D2100013F069FFC0F3400058E0B42A00F0AE817B
:10D2200023D8A52A00F033810ED88C2A00F0DE80A6
:10D23000A22ABFD16C21A648002E40F01F8113F016
:10D2400052FFC0F3C13041E0A72A00F07E81C0F058
:10D250004381B32AAED16C219D48002E40F08581D8
:10D2600013F041FFC0F3404030E0BB2A00F0AA8138
:10D2700017D8B52A00F08C81BA2A9BD1002840F03B
:10D2800092811321924813F02EFF002800F089812B
:10D290004FF0807393FBF0F08E4B9842A8BF184676
:10D2A00014E1C02A00F0BF81CC2A00F0CE81BF2A51
:10D2B00080D1002840F0A6817021854813F013FF2B
:10D2C000C0F3014002E018B912F090FC286098E029
:10D2D0001968104612F0F8FA002692E018B90020FA
:10D2E00012F074FCF2E71968002012F00FFCF3E76B
:10D2F00010B912F09BFCE9E71968204612F0BEFA5B
:10D30000EAE700287FF456AF12F080FCDEE71968E8
:10D310000029B8BF4942002012F014FCDCE710B924
:10D3200012F094FCD2E71968204612F0BAFDD3E758
:10D330001021674826B913F0D6FEC0F30420C5E7D4
:10D3400013F0D1FE2B681B0203F4F85320F4F852BB
:10D350001A4310215E4813F093FEBDE713F0C3FE9D
:10D360002B6820F01F0203F01F03F1E700287FF471
:10D3700021AF12F007FBC0F30010A7E700215448CB
:10D3800013F0B1FE2B685B0003F0020320F00202F1
:10D390001A430021DEE700287FF40CAF12F092FC64
:10D3A000122104464A4813F09EFEC0F313027A206D
:10D3B000D317A4FB00011AF0F5FA00F11303262B92
:10D3C00098BF002082E718B9002012F06DFC7DE7BD
:10D3D0001978002012F0D2FB7EE710B912F072FC2F
:10D3E00074E71968204612F0D9FB75E758B96C212B
:10D3F000374813F078FE4FF48073C0F303600341A5
:10D400002B603046F8BD1B68102B31D00FDC022B8F
:10D410002AD006DC012B18D04FF0FF332B601026EA
:10D42000EFE7042B22D0082BF6D105230EE0402B8A
:10D4300020D003DC202BEFD1032307E0802B1BD06F
:10D44000B3F5807FE8D1002300E008232B606C2136
:10D450001F4813F048FE2B681B0603F0706320F092
:10D4600070621A436C2175E70723EFE70623EDE7A7
:10D470000423EBE70223E9E70123E7E713F033FE98
:10D480002B68DB0303F4C03320F4C032E9E7002843
:10D490007FF490AE6C210E4813F025FE10F480440A
:10D4A0004FF06C010A4804D013F01DFEC0F3C31006
:10D4B0000CE713F018FE6C210646054813F013FE26
:10D4C000C0F30210330548BF40F00800286003E7AE
:10D4D0004022FF1FFFFF0F006C216548B6B913F013
:10D4E00002FE10F480444FF06C01614804D013F048
:10D4F000FAFDC0F30210E9E613F0F5FD6C210646D3
:10D500005B4813F0F0FDC0F3C310DBE713F0EBFD55
:10D5100010F480464FF06C01554808D013F0E3FD3D
:10D520002B681B0103F0700320F0700299E713F0E1
:10D53000DAFD2B68DB0103F4F06320F4F0621A4398
:10D540006C214B4813F09CFD5BE76C21484826B9E1
:10D5500013F0C9FD00F00F00B8E613F0C4FD2B680E
:10D5600020F00F0203F00F037BE713F0BCFD2B68E4
:10D570005B0403F4003320F4003272E700287FF4E8
:10D5800019AE6F213A4813F0AEFDC0F304409DE69A
:10D5900010B912F07BFB99E61968204612F0E0FA08
:10D5A0009AE6344892E71B6853B14FF0807292FBC1
:10D5B000F3F2304B9A42A8BF1A462A601321C9E6FB
:10D5C0002C4AFAE770212A4826B913F08CFDC0F3E3
:10D5D00007207BE613F087FD2A68120220F47F40C3
:10D5E00092B202437021224813F04AFD214620489E
:10D5F00013F079FD2B68002B20F00402D4BF042324
:10D600000023C5E61B68032B3FF609AF70211848BD
:10D6100013F069FD2B681B0403F4403320F44032FF
:10D620001A43702196E67021114826B913F05BFD6C
:10D63000C0F380404AE613F056FD2B68002B20F41F
:10D64000802218BF4FF48023EAE77021084826B9EA
:10D6500013F049FDC0F3015038E613F044FD2B6888
:10D660001B0503F4401320F44012D9E70826C8E64E
:10D670004022FF1FFFFF0F0007B5019201AB0246DA
:10D680000120FFF77EFD03B05DF804FB1346024660
:10D69000002076E5014813F0E3BD00BF4022FF1FE4
:10D6A00010B54FF40030074C12F03EFB0023D4E9D4
:10D6B000A312184612F08EF92046BDE8104013F070
:10D6C000B8BD00BF4022FF1F022804BF0C4B93F8D7
:10D6D000F00038B90B4BDB681B685B690A4AD2F86B
:10D6E00088021847012809D1054B93F8F030012B27
:10D6F00004D1044BDB681B689B69EFE7704700BFF0
:10D70000885EFF1FD89D02004022FF1F38B5002011
:10D71000FFF7DAFF144B154CDD68D4F888022B684C
:10D720009B6898472B68D4F88C029B6898472B68B5
:10D73000D4F890029B6898472B68D4F894029B68B1
:10D7400098472B68D4F898029B6898472B68D4F8C0
:10D750009C029B6898472B68D4F8A0029B68984766
:10D76000BDE8384012F058BBD89D02004022FF1F90
:10D7700008B50146034813F011FD0020BDE808403C
:10D7800012F0BAB84022FF1F10B51446042828D85A
:10D79000DFE800F003080E121A00084612F0F2F853
:10D7A000206003E01178104813F063FD002010BDE5
:10D7B0000D4813F061FDF3E70C4B0220DB6898473E
:10D7C0005023B0FBF3F0EBE713684FF4FA515943E1
:10D7D0006423B1FBF3F1054B89B29B6802209847A3
:10D7E000E4E70420E3E700BF4022FF1FE00AFF1F39
:10D7F00038B50D46044648B912F0E8F92B68C1184F
:10D800002960204612F060F8204638BD0820FCE769
:10D810000248DBB2D0F8A80210F01CBC4022FF1F67
:10D82000012212F0A5BC70B501225F4E5F4C11467B
:10D83000072012F041FCF5686B6803F59472C4F898
:10D840008C2203F5A472C4F8902203F1C802C4F834
:10D85000942203F1E802C4F8982203F1880203F14C
:10D860006800C4F89C2203F1A80203F5C473C4F84D
:10D87000A4322B68C4F8A022DB68C4F88802984759
:10D880002B68D4F88C02DB6898472B68D4F8900298
:10D89000DB6898472B68D4F89402DB6898472B68BC
:10D8A000D4F89802DB6898472B68D4F89C021B696F
:10D8B00098472B68D4F8A0021B699847F36AC4F80C
:10D8C000A83201261E705B689847394B3949D3F856
:10D8D0009020C2F804123849C2F80812374916805D
:10D8E000C3F89C103649C3F898103649C3F8941011
:10D8F0003549C3F8A0103549C3F8B4103449C3F80A
:10D90000B0103449C3F8A4103349C3F8A810334900
:10D91000C3F8C4103249C3F8C0103249C3F8CC1060
:10D920003149C3F8DC103149C3F8D81032204FF424
:10D93000C371C3E921102E49C3F8D4102D4983F8CF
:10D940008C60C3F8D01020462B4B002113F00AFC4A
:10D950004FF4003012F0E8F90023D4E9A31218467E
:10D9600012F038F84FF44841002012F0EBF84FF471
:10D970004841002012F095FA2B68D4F8A402DB6825
:10D980009847D4F8A4021D4C042343752B681B68E8
:10D99000984723689847A368022041F2707198471E
:10D9A0003046BDE870408FE6D89D02004022FF1F40
:10D9B000885EFF1FA1D6000095D6000067D1000049
:10D9C00081D100007DD1000079D100008DD600000A
:10D9D00079D6000055D10000F1D7000035D1000004
:10D9E00041D1000089D70000C9D6000025D1000030
:10D9F0000DD7000071D7000094890200E00AFF1FD4
:10DA0000012810B514460DD043B21BB1022810D026
:10DA1000042010BD12680949B2FA82F252090A7153
:10DA20000020F6E71368064AB3FA83F35B09136034
:10DA3000F6E7084611F0A6FF2060F1E7F824FF1F83
:10DA40006C00FF1F10B50348144613F061FC206002
:10DA500010BD00BFF824FF1F70B5164C01462046CC
:10DA600013F0A0FC002011F047FF002012F0CEF8C8
:10DA7000A36894F840200028B8BF4042984234BFC1
:10DA800000260126B24213D098424FF00501094802
:10DA90002CBFA579657913F03BFC05F00F0520F04C
:10DAA0000F022A430521034813F020FC84F840604C
:10DAB00070BD00BFF824FF1F014813F017BC00BF62
:10DAC000F824FF1F10B5044618B911F0FDFE2046DA
:10DAD00010BD0820FCE710B5044618B911F0CEFEC1
:10DAE000204610BD0820FCE70021F4E74942F2E798
:10DAF000F1E770B504461D460E46002940F032831A
:10DB0000A72A00F0148267D81D2A00F0028122D8CB
:10DB1000042A00F005810DD8012A00F0E880002ACF
:10DB200000F0D980022A00F0EB80032A00F0F18097
:10DB300004245EE1062A00F00981C0F0FD80072A76
:10DB400000F01A81082AF3D10028F1D111F01AFF50
:10DB5000C0F30010C3E0A12A00F086811AD8332A4E
:10DB600000F0278107D8322AE2D1002840F01C813A
:10DB700012F09AF8B3E08C2A00F02481A02AD7D1C1
:10DB8000002840F064810821B64813F0C1FBC0F3BF
:10DB90004020A4E0A42A00F099810ED8A22A00F027
:10DBA0007581A32AC4D1002840F085810C21AD489D
:10DBB00013F0AEFBC0F3803091E0A52A00F099810C
:10DBC000A62AB5D1002840F0A7810C21A54813F062
:10DBD0009FFBC0F3021082E0B22A00F0458241D8D8
:10DBE000AC2A00F0F48113D8A92A00F0C581C0F056
:10DBF000B081AA2A00F0D181AB2A99D10521994898
:10DC0000002C40F0DB8113F083FBC0F3411066E091
:10DC1000AF2A00F0FD8115D8AD2A00F0DF81AE2AD1
:10DC200086D106218F48002C40F0E98113F070FB6B
:10DC3000000A00F07F0310F0400018BF6FF07F0073
:10DC400018434CE0B02A00F0F581B12A7FF470AFA0
:10DC500007218448002C40F0FE8113F059FBC0F3EB
:10DC600080203CE0B72A00F0378210D8B42A00F0B8
:10DC70001D82C0F00A82B52A00F02282B62A7FF403
:10DC800057AF784B002840F024829B6861E0CE2A91
:10DC900000F0468213D8B82A00F02E82B92A7FF409
:10DCA00047AF07216F48002C00F09B8113F030FB39
:10DCB0002B681B0403F4803320F48032B7E1D02AB0
:10DCC00000F04482D62A7FF433AF664B002840F040
:10DCD00046821B693DE020B9002011F087FF2860D3
:10DCE00087E01968002011F0EFFD002481E010B9F1
:10DCF00011F06CFFF3E71968304611F007FFF4E705
:10DD000010B911F093FFEAE71968002011F0B6FD91
:10DD1000EBE7002C7FF40CAF204611F077FFDEE735
:10DD200010B911F0A3FFDAE719680029B8BF49421A
