:020000040800F2
:1080000000800120D9840208614402086344020808
:108010006544020867440208694402080000000041
:108020000000000000000000000000006B44020897
:108030006D440208000000006F440208C5B6010844
:108040001D8502081D8502081D8502081D85020880
:108050001D8502081D85020895D80108EDD8010884
:108060001D8502081D8502081D8502081D85020860
:108070001D8502081D8502081D8502081D85020850
:108080001D8502081D8502081D8502081D85020840
:108090001D8502081D8502081D8502081D85020830
:1080A0001D8502081D8502081D8502081D85020820
:1080B00069E601081D8502081D8502081D85020864
:1080C0001D8502081D8502081D8502081D85020800
:1080D0001D8502081D8502086DCB010841C80108F5
:1080E0001D8502081D8502081D8502081D850208E0
:1080F0001D8502081D8502081D8502081D850208D0
:108100001D8502081D85020845D901081D85020844
:108110001D8502081D8502081D8502081D850208AF
:108120001D8502081D8502081D8502081D8502089F
:108130001D8502081D8502081D8502081D8502088F
:108140001D8502081D8502081D850208B1C10108B0
:108150001D8502081D8502081D850208D5C5010878
:108160001D8502081D8502081D8502081D8502085F
:108170001D8502081D8502081D8502081D8502084F
:048180001D8502084F
:1081880010B5054C237833B9044B13B10448AFF349
:1081980000800123237010BDE80F002000000000BC
:1081A80014B7020808B5034B1BB103490348AFF3E2
:1081B800008008BD00000000EC0F002014B7020882
:1081C80010B515F0E1FB0022054B1A70054B1B6832
:1081D8009847BDE81040044B9B695B69184700BF8E
:1081E800D40A0020AC01002070A30208431E2DE928
:1081F800F0471446052B00F22881DFE813F006004B
:108208000C000C004E007800D200FFF7D9FF47F6AB
:10821800A85323603FE0924B924D02280ABFA9461B
:1082280099461D464FF0FF364FF000084FF0010AFF
:108238008D4BA9F10409DF68043D3B68D9F80400B7
:108248001B6998473B686868DB6898473B6855F83E
:10825800040F5B6998473B6859F8040F5B6A9847B5
:1082680018B90AFA08F326EA03063B6828689B69E6
:1082780098473B68D9F800005B6A984718B10AFA32
:1082880008F326EA030608F10108B8F1110FD4D162
:10829800C6F310062660002031E0216003292DD89E
:1082A800DFE801F0021A1E226F4BDB691B68188891
:1082B8001FF014FA66A3D3E900231FF0A3FB66A3FB
:1082C800D3E900231FF074FA0022684B1FF070FAFC
:1082D8001FF080FC2060DEE7634BDB695B68E6E744
:1082E800614BDB699B68E2E7614B1B6991E70129F8
:1082F800216022D04CB224B1022937D00220BDE837
:10830800F087594BDD68D5E900309B6824309847E1
:10831800D5E90030DB6840309847D5E90030DB68A4
:108328005C309847D5E900305B6940309847D5E91B
:1083380000305B695C309847ADE74B4BDC68D4E9AB
:1083480000309B6840309847D4E90030DB6824301F
:108358009847D4E90030DB685C309847D4E90030AE
:108368005B6924309847D4E90030E2E73E4BDC688B
:10837800D4E900309B685C309847D4E90030DB686A
:1083880024309847D4E90030DB6840309847D4E976
:1083980000305B6924309847D4E900305B6940308D
:1083A800C9E70129216037D04CB2DCB10229A5D137
:1083B8002D4BDC68D4E900309B685C309847D4E9E1
:1083C8000030DB6824309847D4E90030DB6840305F
:1083D8009847D4E900305B6924309847D4E90030E5
:1083E8009B69DCE7204BDD68D5E900309B682430C9
:1083F8009847D5E90030DB6840309847D5E9003028
:10840800DB685C309847D5E900305B6940309847B5
:10841800D5E900309B698DE7134BDC68D4E900305F
:108428009B6840309847D4E90030DB68243098478F
:10843800D4E90030DB685C309847D4E900305B69E8
:1084480024309847D4E90030E4E7042057E700BF18
:108458000000000000FEAF40AAF1D24D62101440A7
:10846800586400209465002070A30208000024408E
:10847800D40A002038B5064C05462368C31AB3F55C
:10848800FA7F04D3034B9B699B699847256038BDE5
:108498000410002070A302083B4B3C4ADB685B6871
:1084A80003F5BA71116003F1B001516003F1E801FD
:1084B800916003F59071D16003F5AC71116103F51A
:1084C800D671516103F5F271916103F50771D161BC
:1084D80003F51571116203F52371516203F53171CA
:1084E800916203F53F71D16203F54D71116303F594
:1084F8005B71516303F56971916303F57771D1631A
:1085080003F214411164224A03F17801116003F166
:108518009401516003F1CC01916003F58271D1603F
:1085280003F59E71116103F5C871516103F5E4719A
:10853800916103F50071D16103F50E71116203F5C4
:108548001C71516203F52A71916203F53871D16289
:1085580003F54671116303F55471516303F56271B4
:10856800916303F5707103F57E731364D16301227F
:10857800084B1A70084B094A5A65094ADA65094ACC
:108588009A651BF0E7BD00BF70A30208586400207D
:1085980094650020D40A00209C640020F58100081E
:1085A800C98100087D8400087047022070470220B6
:1085B80070477047704702207047022070470220BA
:1085C80070470120704770470220704770478369E1
:1085D800124A10B5C3E98122114B1249C365124BE7
:1085E800124AC0E90A131249C361C0E90C130362B5
:1085F800104B114C8364114B8265C364104BC463E8
:108608008363C0E910330F4BC0E914144366002399
:10861800C3660D4B0266C0E91C3310BDCB8500084C
:10862800B1850008B3850008B7850008D58500081E
:10863800BF850008BB850008C7850008BD85000800
:10864800C3850008CF850008D1850008704700BFA2
:108658000022012110B44FF0FF340848084B80F87D
:108668008C201A8083F81012C0E92141C0F890309C
:10867800C0F8802010BC7830FFF7A9BF9C640020A8
:108688001410002000234FF0FF314FF0010C064A70
:108698000648138082F810328261C0E9031C037512
:1086A8008360FFF794BF00BF341200209C64002051
:1086B80000231846054911F8012B02F003029A40DD
:1086C80002330E2B40EA0200F5D170475414002003
:1086D8000549431E063011F8012B02F0030203F886
:1086E800012F8342F7D1704754140020074B1A78A2
:1086F80002705A7842709A788270DA78C2701A7961
:1087080002715A7942719B79837170475414002021
:10871800F8B50024084B094D094FDE6815F8011B10
:108728007A6C33681059DB6901F003010434984707
:108738001C2CF3D1F8BD00BF70A30208541400200C
:10874800000000200723064A013B00F0030113F054
:10875800FF0302F8011B4FEA9000F5D1D8E700BFEC
:1087680054140020014B586AECE700BF00000020B9
:108778000549431E063013F8012F02F00302834215
:1087880001F8012BF7D1C3E7541400200278074BF6
:108798001A7042785A7082789A70C278DA700279C0
:1087A8001A7142795A7182799A71B1E7541400208A
:1087B8000022024BC3F88020704700BF9C64002051
:1087C80010B50348144616F0F4FC206010BD00BF35
:1087D8008414002010B50F4C0146204616F055FDB4
:1087E800002015F08DFE6F21204616F0E2FCC0F344
:1087F8000061002015F024FF012015F081FE7F2183
:10880800204616F0D6FCBDE81040C0F300610120F8
:1088180015F016BF84140020014816F0BCBC00BF38
:1088280084140020012808B503D815F053FE002051
:1088380008BD0820FCE7012808B503D815F028FE74
:10884800002008BD0820FCE70021F4E74942F2E7D0
:10885800F1E70129F8B506461D46084600F2CA8226
:10886800A32A00F0938143D8072A00F0EC8022D88D
:10887800032A00F0C1800AD8012A00F0B18040F232
:10888800A480002E40F0B48015F0CAFFA0E0052AAD
:1088980000F0C38040F2B68020248C4044F01004DD
:1088A800E4B22146B848002E40F0BF8016F081FCA3
:1088B800C0F304208CE0322A00F0FC800AD81C2A7D
:1088C80000F0DE801D2A00F0F080082A00F0D08039
:1088D80004267EE08C2A00F0F980A22A00F03E816E
:1088E800332AF5D1002E40F0ED8015F0DFFF6FE060
:1088F800AB2A00F0008232D8A72A4FEA011000F014
:10890800BE811AD8A52A00F06A8140F2548140F04D
:108918006C00C4B221469C4816F04BFC214600F47A
:1089280080479948002E40F09F81002F00F09681E3
:1089380016F03FFCC0F302104AE0A92A00F0BE81FD
:1089480040F2A98140F06D00C4B221468E48002E45
:1089580040F0C88116F02DFCC0F3032038E0B32A9C
:1089680000F009821BD8AD2A00F0E781C0F0D88159
:10897800AE2AADD10C0144F06D04E4B22146824820
:10898800002E40F0EF8116F014FC001400F07F0375
:1089980010F0400018BF6FF07F00184318E0B52AA8
:1089A80000F00B82C0F0FC81B82A00F00E82CE2ABB
:1089B8008ED1002E8CD1080140F06F01C9B27248E7
:1089C80016F0F7FBC0F3090002E026B915F00CFF1A
:1089D80028603046F8BD196815F07CFD0026F8E7D8
:1089E80016B915F0F3FEF3E7196815F095FEF5E7EB
:1089F800196815F04DFDF1E7002E7FF469AF15F009
:108A080001FFE5E716B915F027FFE1E71968002926
:108A1800B8BF494215F09AFEE0E716B915F00EFF07
:108A2800D6E7196816F015F8D8E716F0C2FB2B68D8
:108A380020F4F8521B0203F4F8531A432146524813
:108A480016F0A9FBCAE720248C4044F01004E4B2D5
:108A580021464D4826B916F0ACFB00F01F00B7E7D9
:108A680016F0A7FB2B6820F01F0203F01F03E4E7B2
:108A7800002E7FF42DAF15F089FDC0F30010A7E795
:108A88000C0144F06C04E4B221463F4826B916F0C4
:108A980090FBC0F380409BE716F08BFB2B6820F41B
:108AA80080229B0403F48023C7E7002E7FF410AFD5
:108AB8000020A4E716B915F0EBFE89E7197815F040
:108AC8005FFE8BE7196815F06BFE87E756B908015A
:108AD80040F06C0101F0FC012B4816F06AFBC0F372
:108AE800036075E71B68102B32D00EDC022B2BD0ED
:108AF80005DC012B17D04FF0FF332B606EE7042BFA
:108B080024D0082BF7D105230EE0402B22D003DC1C
:108B1800202BF0D1032307E0802B1DD0B3F5807FF5
:108B2800E9D1002300E00823040144F06C04E4B216
:108B38002B602146144816F03CFB2B6820F070622D
:108B48001B0603F0706378E70723EDE70623EBE7DE
:108B58000423E9E70223E7E70123E5E70C0144F0F2
:108B68006C04E4B22146084826B916F022FBC0F38B
:108B7800C1302DE716F01DFB2B6820F4C032DB0353
:108B880003F4C03359E700BF841400200C0144F0FB
:108B98006C04E4B22146984826B916F00AFBC0F3E3
:108BA800803015E716F005FB2B6820F480429B0304
:108BB80003F4804341E740F06C00C4B221468E487C
:108BC80026B916F0F6FAC0F3003001E716F0F1FA0C
:108BD8002B6820F480521B0303F480532DE740F0E8
:108BE8006C00C4B22146844816F0E3FA21460746D1
:108BF80000F4804380487EB923B116F0DAFAC0F356
:108C0800C310E5E616F0D5FAC0F3021317F40060B6
:108C180018BF43F0080370E743B116F0CAFA2B688F
:108C280020F4F062DB0103F4F06306E716F0C1FA02
:108C38002A6820F07000120102F0700202432146F7
:108C48006D4816F0A8FA21466B4816F0B2FA2B6860
:108C580020F400621B0203F40063EEE616F0A9FAA2
:108C6800C0F3C3102860B9E6002FD6D016F0A1FAD9
:108C78002B6820F070021B0103F07003DDE640F062
:108C88006C00C4B221465C48002E4ED116F091FA11
:108C980000F00F009CE640F06D00C4B22146564833
:108CA80026B916F086FAC0F3C03091E616F081FABC
:108CB8002B6820F40042DB039BB2BEE640F06D0057
:108CC800C4B221464C4826B916F073FAC0F34130B5
:108CD8007EE616F06EFA2B6820F4C0425B0303F4BC
:108CE800C043AAE616F065FA2B6820F470621B02EE
:108CF80003F47063A1E60C0144F06D04E4B221466C
:108D08003D4826B916F055FAC0F3411060E616F052
:108D180050FA2B6820F060025B0103F060038CE6D8
:108D28000C0144F06D04E4B2ACE716F042FA2B688B
:108D380020F00F0203F00F037FE60C0144F06D04EE
:108D4800E4B221462C4826B916F033FAC0F3006085
:108D58003EE616F02EFA2B6820F080721B0603F010
:108D680080736AE616F025FA2B6820F4FE021B04CD
:108D780003F4FE0361E60C0144F06C04E4B22146FE
:108D88001D4826B916F015FAC0F3404020E616F043
:108D980010FA2B6820F400325B0403F400334CE62D
:108DA800002E7FF495AD080140F06F01C9B212485A
:108DB80016F0FFF9C0F304400AE616B915F05AFD9B
:108DC80006E6196815F0CEFC08E60C0144F06C04C0
:108DD800E4B22146084826B916F0EBF9C0F3403052
:108DE800F6E516F0E6F92B6820F400525B0303F46D
:108DF800005322E60826ECE58414002007B501920A
:108E080001AB02460120FFF724FD03B05DF804FB27
:108E18001346024600201CE5014816F01EBA00BFA2
:108E280084140020022804BF0C4B93F8F00038B9D2
:108E38000B4BDB681B685B690A4AD2F89402184737
:108E4800012809D1054B93F8F030012B04D1044BCC
:108E5800DB681B689B69EFE7704700BF9C640020D4
:108E680070A302088414002070B50020FFF7DAFF11
:108E78000C4B0D4CDD68D4F894022B689B6898471E
:108E88002B68D4F8A4029B6898472B68D4F8A802EA
:108E98009B68984715F0B6FDBDE87040034B5B68CA
:108EA800184700BF70A3020884140020800A00201D
:108EB8000346052B10B5084614460BD006D8022BDE
:108EC80006D315F0F3FC2060002010BD182BF8D055
:108ED8000420FAE715F004FDF5E738B50D46044619
:108EE80020B915F08FFC2860204638BD0820FCE723
:108EF800022810B5144611D0032817D0012819D11B
:108F08000D4B0E4ADB68D2F8A4021B685B6A9847CF
:108F1800003018BF01202060002010BD064B074A12
:108F2800DB68D2F8A8021B685B6AF0E7084615F010
:108F38002DFBF0E70420F0E770A30208841400205A
:108F4800012838B504460D4608D815F03FFC2B68B3
:108F5800C11829602046BDE8384063E4082038BDC0
:108F680038B5002015F04EFC08B1002038BD0120AE
:108F780015F048FC05460028F7D10C4C204616F0A1
:108F880059F90B4815F0C2FC2B46D4F88C22D4F8BA
:108F98008412284615F01EFB01202B46D4F8902297
:108FA800D4F8881215F016FB0120DFE7841400209E
:108FB800A0860100022806D3052801D9182802D165
:108FC80000201060704704207047034B0846D3F810
:108FD800B0321146DB681847841400202DE9F041AF
:108FE8005A4C5B4D5B4F0121D4F8902028465A4BD0
:108FF80016F003F9FE68736803F1CC02C5F89422F1
:1090080003F59E72C5F8A82203F5AC72C5F8A42230
:1090180003F5C872C5F88C2203F5D67203F5BA7049
:10902800C5F8882203F5E47203F50E73C5F8AC326F
:109038003368C5F89022DB68C5F88402984733681E
:10904800D5F88C02DB6898473368D5F88802DB6866
:1090580098473368D5F89002DB6898473368D5F8A5
:109068009402DB6898473368D5F8AC02DB68984708
:109078003B693A4803F11402C5F8B022D5F8AC228E
:109088009A6115F043FC0023D5F88C22D5F8841298
:10909800184615F09FFAD5F88812D5F890220023C3
:1090A800012015F097FAD4F890302D4A0220C3F821
:1090B80004222C4AC3F8082201221A802A4B3222A1
:1090C800C4F89C30294B84F88C00C4F89830284B9D
:1090D800C4F89430274BC4F8A030274BC4F8B430F8
:1090E800264BC4F8B030264BC4F8A430254BC4F83E
:1090F800A830254BC4F8C430244BC4F8C030244BE6
:10910800C4F8D030234BC4F8CC30234BC4F8C83053
:10911800224BC4F8DC30224BC4F8D8304FF48F739C
:10912800C4E921321F4BC4F8D4301F4BC4F8E830CF
:109138001E4BC4F8EC301E4CFFF774FE23689847AA
:109148000021A3680846BDE8F04118479C64002048
:109158008414002070A3020848870208A086010032
:10916800698F0008218E00083F8800085988000888
:109178005588000851880008198E0008058E0008D7
:109188002D880008498F000821880008C987000831
:10919800DD870008F98E0008E38E00082D8E000890
:1091A800B9870008718E0008BD8F0008B98E0008C5
:1091B800800A0020014B1046DB6B18470000002096
:1091C800034B10B51B6C14469847206010BD00BFB8
:1091D80000000020062873B504460E467BD8404D93
:1091E80068462B6B013C98472B46042C04D8DFE8D3
:1091F80004F00866696C6F009DF800303360002049
:109208000BE09DF80120E978914208D19DF8020011
:10921800297B884203D10020306002B070BD1979E3
:10922800914206D19DF80200597B884201D1012361
:10923800E4E75979914206D19DF80200997B88426A
:1092480001D10223DAE79979914206D19DF802000B
:10925800D97B884201D10323D0E7D979914206D13D
:109268009DF80200197C884201D10423C6E7597A87
:10927800914206D19DF80200997C884201D10523CC
:10928800BCE7997A914206D19DF80200D97C8842C0
:1092980001D10623B2E7197A914206D19DF802005E
:1092A800597C884201D10723A8E7D97A914214D181
:1092B8009DF802201B7D9A420FD108239EE79DF856
:1092C80003309BE79DF8043098E79DF8053095E753
:1092D8009DF8063092E704209FE710209DE700BF25
:1092E8000000002007B5034B68461B6B984703B086
:1092F8005DF804FB0000002070B50020FFF7F2FFC6
:109308001E4B1F4CDD68206B2B689B6898472B68A9
:10931800E06A9B6898472B68E0689B6898472B68C9
:10932800A0689B6898472B6860689B6898472B687B
:1093380020689B6898472B68A0699B6898472B68AA
:10934800E0699B6898472B68A06A9B6898472B68D8
:1093580060699B6898472B68206A9B6898472B68C8
:10936800606A9B6898472B6820699B68984715F046
:1093780049FBBDE87040034B5B68184770A30208BF
:1093880044170020800A002010B5044618B915F0CB
:10939800A1F8204610BD0820FCE710B5044618B90E
:1093A80015F076F8204610BD0820FCE70021F4E708
:1093B8004942F2E7F1E7062873B505460C465DD841
:1093C800022903D901285BD10F2959DC2D4E6846A3
:1093D800336B98473346052D06D8DFE805F0030BB5
:1093E8004346494C8DF800406846DB6A98470020A0
:1093F80002B070BD082CF7D8DFE804F0050C111690
:109408001B20252A2F00F2788DF80120327B8DF859
:109418000220E9E732798DF80120727BF7E772794B
:109428008DF80120B27BF2E7B2798DF80120F27B4A
:10943800EDE7F2798DF80120327CE8E7727A8DF851
:109448000120B27CE3E7B27A8DF80120F27CDEE7F6
:10945800327A8DF80120727CD9E7F27A8DF80120F2
:10946800327DD4E78DF80340BEE78DF80440BBE7B2
:109478008DF80540B8E78DF80640B5E70420B7E752
:109488001020B5E700000020002015F039B838B5E5
:10949800154618B1012807D0042038BD084615F034
:1094A80075F828600020F8E7094B0A4DDC680A4B7C
:1094B800606800F5BA70D8616B6C58612368DB6826
:1094C80098476A6C236850699B699847EAE700BF28
:1094D80070A30208000000204417002038B50D468C
:1094E800044648B915F072F92B68C118296020465E
:1094F80014F0F0FF204638BD0820FCE770B505469B
:1095080016460C4600295DD10B2810D806283CD2F7
:1095180002282ED004D808B3012825D0042421E03D
:1095280004282ED029D9084615F088F91FE01328F9
:109538000CD80E283CD20C282FD00D28EED1224B67
:10954800224ADB68106B1B685B6A2CE0322835D036
:109558003328E3D1084615F0A9F908E015F044F9D5
:109568002C463060204670BD084615F02FF9306053
:10957800F8E7084615F054F9F9E7084615F042F9F6
:10958800F5E7084615F068F9F1E70828C6D1084656
:1095980014F0FCFFC0F30010E9E70B4B0B4ADB6843
:1095A800D06A1B685B6A9847003018BF0120DEE765
:1095B8000E381146C0B2FFF70DFED3E7084615F086
:1095C80067F9D4E70824CDE770A302084417002000
:1095D80030B585B0054601920C4600296ED10B289E
:1095E80012D8062846D2022837D004D848B3012812
:1095F8002CD004242EE0042834D00528F9D11146B3
:10960800204615F026FA25E013280FD80E2845D253
:109618000C2836D00D28ECD142F210739A42E8D8C3
:10962800274B91B29B682046984713E0332837D0E0
:109638008C283AD03228DCD1D1B2204615F0A0F8D7
:1096480008E0114614F046FF2C4603E01146204678
:1096580015F062F8204605B030BD1146204614F0DA
:1096680017FFF7E782EAE271A1EBE271204615F0F5
:109678006DF8EFE706381146C0B2FFF79CFE0446C6
:10968800E8E7104B1049DB68C86A1B68154612B139
:109698005B699847DEE79B699847D5E70E38EAE7A4
:1096A8001146204615F07CF8D4E701A90120FFF700
:1096B80091FD064B04469B6B02A8EAE70824C9E71C
:1096C800800A002070A30208441700200000002030
:1096D8006F4B2DE9F041DE686E4C7068002500F58F
:1096E8000073236300F5F273E36200F52A73E36005
:1096F80000F53173A36000F52373636000F50E7302
:10970800236000F55B73A36100F55473E36100F116
:10971800CC03A36200F5C873636100F56973236223
:1097280000F570736362336800F5BA70DB68206116
:10973800984733686069DB6898473368206BDB6853
:1097480098473368E06ADB6898473368206A1B6982
:1097580098473368504F1B69606A98477B6CE2688A
:109768001A60A2685A6062689A602268DA60A26920
:109778001A61E2695A61A26A9A617A6C336850592F
:10978800DB6898477A6C336850599B690435984769
:109798001C2DF2D14FF00008404D4FF40030D5F8A1
:1097A800903083F8008015F0B1F8D4E904124346EC
:1097B800404614F00FFF44F62061404614F0C6FFFF
:1097C80046F2A811404615F044F9354B0220C5F879
:1097D8009C30344BC5F89830334BC5F89430334B34
:1097E800C5F8A030324BC5F8B430324BC5F8B030AC
:1097F800314BC5F8A430314BC5F8A830304BC5F80B
:10980800C430304BC5F8C0302F4BC5F8CC302F4B87
:10981800C5F8D0302E4BC5F8DC30012385F88C30E4
:109828002C4BC5F8D430FFF75DFD404614F0EAFF35
:1098380010B1294B9B78ABB1BB6A98474FF4003005
:1098480015F064F8D4E904120023184614F0C2FE97
:1098580044F62061002014F079FF46F2A811002098
:1098680015F0F7F80222236B197C5A741868012244
:109878001AF0DFFD3368206B184C1B689847236883
:1098880098470021A3680846BDE8F041184700BF83
:1098980070A3020844170020000000209C640020E8
:1098A800A3930008BD930008B9930008B593000876
:1098B80005950008D995000891930008E5940008DB
:1098C800BD910008C9910008979400089194000878
:1098D800ED92000801930008D40A0020800A0020B5
:1098E8001B4B70B5DD681B4C2B68A0685B699847FB
:1098F8002B6820689B6898472B6860689B68984726
:109908002B68206A9B6898472B68606A9B68984711
:109918002B68E0689B6898472B6820699B68984784
:109928002B6860699B6898472B68A0699B68984773
:109938002B68E0699B6898472B68A0689B689847E4
:1099480015F060F8BDE87040034B5B68184700BF2E
:1099580070A3020884170020800A002010B514465E
:10996800062805D8DFE800F00626243540454F00D4
:10997800042010BD44F6206314689C424FD842F27C
:109988001071284B284ADB688C421B6898BF00215D
:10999800DB6988BF0121106A984742F21173B4FB52
:1099A800F3F103FB1141214B89B29B6800209847D2
:1099B8000020DEE71B4B2468DA68D2E9003000F5A6
:1099C80007701CB10021DB699847F1E79B6898474D
:1099D800EEE7144B1168DB68134A1B680031DB693A
:1099E80018BF01211069EFE7084614F0CFFD206089
:1099F800DEE70C4B0C4ADB6858681B6800F5BA7048
:109A08001061DB68E3E7074B074ADB6858681B68A7
:109A180000F22471D1605B6900F55470D7E710201B
:109A2800A7E700BF70A3020884170020800A00205F
:109A380010B50348144615F0A6FC206010BD00BF01
:109A4800D865002010B5094C0146204615F039FDAF
:109A5800002014F055FD6F21204615F094FCBDE858
:109A68001040C0F30061002014F0EABDD865002062
:109A7800014815F07ABC00BFD865002010B504462F
:109A880018B914F027FD204610BD0820FCE710B5D2
:109A9800044618B914F0FCFC204610BD0820FCE769
:109AA8000021F4E74942F2E7F1E770B504461D46A4
:109AB8000E46002940F04E85A52A00F08F8256D820
:109AC800172A00F0478126D8042A00F0E8800ED82B
:109AD800012A00F0AD80002A00F09E80022A00F0E2
:109AE800B280032A00F0BA800424204670BD072AF9
:109AF80000F0068107D8052A00F0DF80062A00F06A
:109B0800E7800424F1E7082A00F01181152A00F003
:109B180017810424E9E7322A00F0B28113D81B2AFE
:109B280000F0638107D8182A00F039811A2A00F05A
:109B380044810424D9E71C2A00F06F811D2A00F013
:109B480086810424D1E7A22A00F0008207D8332AAC
:109B580000F0A1818C2A00F0A9810424C5E7A32A7A
:109B680000F00C82A42A00F021820424BDE7B42A64
:109B780000F0B58324D8AA2A00F018830CD8A72AA5
:109B880000F0CE82C0F08682A82A00F0E082A92ADE
:109B980000F0F4820424A8E7AD2A00F0518307D826
:109BA800AB2A00F01B83AC2A00F0308304249CE726
:109BB800AE2A00F05D83B32A00F07983042494E789
:109BC800BB2A00F0278413D8B82A00F0C88307D826
:109BD800B52A00F09083B62A00F09A83042484E71B
:109BE800B92A00F0D683BA2A00F0ED8304247CE772
:109BF800C02A00F06C8407D8BC2A00F03384BF2A3E
:109C080000F04684042470E7CC2A00F07B84CE2A36
:109C180000F09684042468E720B9002014F0E4FDDD
:109C2800286062E71968002014F054FC00245CE7FF
:109C380018B914F0CBFD286057E71968304614F0BE
:109C48006BFD344651E718B914F0EAFD28604CE77B
:109C58001968002014F01CFC002446E7002840F096
:109C68007C8414F015FE18B914F0CCFD28603CE78C
:109C7800204614F01BFE12210646B14815F083FB5E
:109C8800C0F313027A20D317A6FB00011EF066FA70
:109C980000F11303262B98BF0020286025E718B988
:109CA80014F0DAFD286020E7196830460029B8BFAB
:109CB800494214F04BFD344617E718B914F0BEFDBD
:109CC800286012E71968002014F0C3FE00240CE78E
:109CD80010219B482CB915F056FBC0F304202860CE
:109CE80003E715F050FB2B6820F4F8521B0203F42D
:109CF800F8531A431021924815F037FB0024F4E674
:109D080010218F482CB915F03EFB00F01F00286089
:109D1800EBE615F038FB2B6820F01F0203F01F0359
:109D28001A431021864815F020FB3446DDE600284A
:109D380040F0168414F02AFCC0F300102860D4E622
:109D4800002800F010841A6811217D4815F00DFBD9
:109D58000024CAE67B4E80B91521794815F013FB1B
:109D680048B14FF0807393FBF0F0B042A8BF304683
:109D780028600024B9E63046FAE71B686BB14FF05B
:109D8800807292FBF3F2B242A8BF32462A601521D4
:109D98006B4815F0EAFA0024A7E63246F6E728B938
:109DA8003321674815F0EFFA28609EE61A683321D8
:109DB800634815F0DAFA002497E66C2160482CB95C
:109DC80015F0E1FAC0F3804028608EE615F0DBFA62
:109DD8002B6820F480229B0403F480231A436C210F
:109DE800574815F0C2FA00247FE66C2154482CB974
:109DF80015F0C9FAC0F3C040286076E615F0C3FA3A
:109E08002B6820F40022DB0403F400231A436C219E
:109E18004B4815F0AAFA344667E638B9014648486F
:109E280015F0B1FAC0F3400028605EE6002144480E
:109E380015F0A9FA2B6820F002025B0003F0020378
:109E48001A4300213E4815F090FA00244DE60028F8
:109E580040F08C8314F02AFD12210646384815F08C
:109E680092FAC0F313027A20D317A6FB00011EF062
:109E780075F900F11303262B98BF0020286034E6FB
:109E880018B914F005FD28602FE61978304614F04B
:109E980077FC344629E618B914F008FD286024E652
:109EA8001968002014F07CFC00241EE650B96C21CF
:109EB800234815F068FA4FF48073C0F30360034138
:109EC8002B6012E61B68102B35D00FDC022B2ED02E
:109ED80006DC012B18D04FF0FF3310242B6004E66A
:109EE800042B26D0082BF6D105230EE0402B24D0D6
:109EF80003DC202BEFD1032307E0802B24D0B3F51C
:109F0800807FE8D1002300E008232B606C210C48F7
:109F180015F039FA2B6820F070621B0603F07063A5
:109F28001A436C21064815F020FA0024DDE50723C2
:109F3800EBE70623E9E70423E7E70223E5E700BFA9
:109F4800D8650020FFFF0F000123DEE76C21BB4826
:109F58002CB915F018FAC0F3C1302860C5E515F022
:109F680012FA2B6820F4C032DB0303F4C0331A431F
:109F78006C21B24815F0F9F93446B6E56C21AF48C2
:109F88002CB915F000FAC0F380302860ADE515F063
:109F9800FAF92B6820F480429B0303F480431A43A8
:109FA8006C21A64815F0E1F900249EE56C21A34830
:109FB8002CB915F0E8F9C0F30030286095E515F0E4
:109FC800E2F92B6820F480521B0303F480531A43F0
:109FD8006C219A4815F0C9F9002486E56C21974848
:109FE80004BB15F0D0F910F480464FF06C0193488B
:109FF80005D015F0C8F9C0F3C310286075E515F051
:10A00800C2F96C2104468D4815F0BDF92205C0F34C
:10A01800021002D42860002467E540F00800286098
:10A02800344662E515F0AFF910F480444FF06C0146
:10A0380082480ED015F0A7F92B6820F4F062DB01F6
:10A0480003F4F0631A436C217C4815F08EF934460A
:10A058004BE515F098F96C21784815F094F92A68C1
:10A0680020F40060120202F4006202436C2173487B
:10A0780015F07BF96C21714815F085F92B6820F0F3
:10A0880070021B0103F070031A436C216B4815F032
:10A098006CF92AE56C216948ECB915F074F910F4EB
:10A0A80080444FF06C01654806D015F06CF9C0F398
:10A0B80002102860002418E515F065F96C210646A1
:10A0C8005E4815F060F93305C0F3C310A2D540F01F
:10A0D8000800286009E515F056F910F480444FF09F
:10A0E8006C0156480ED015F04EF92B6820F070021E
:10A0F8001B0103F070031A436C21504815F035F921
:10A108000024F2E415F03FF92B6820F4F062DB013B
:10A1180003F4F0631A436C21484815F026F9E4E487
:10A128006C2146482CB915F02EF900F00F00286074
:10A13800DBE415F028F92B6820F00F0203F00F0379
:10A148001A436C213D4815F010F93446CDE46D21D1
:10A158003A482CB915F017F9C0F3C0302860C4E4A8
:10A1680015F011F92B6820F40042DB039BB21A4367
:10A178006D21324815F0F9F80024B6E46D212F4816
:10A188002CB915F000F9C0F341302860ADE415F0A2
:10A19800FAF82B6820F4C0425B0303F4C0431A4367
:10A1A8006D21264815F0E1F800249EE46D2123482E
:10A1B8002CB915F0E8F8C0F30320286095E415F0F1
:10A1C800E2F82B6820F470621B0203F470631A43F0
:10A1D8006D211A4815F0C9F8344686E46D211748F0
:10A1E8002CB915F0D0F8C0F3411028607DE415F0C3
:10A1F800CAF82B6820F060025B0103F060031A4381
:10A208006D210E4815F0B1F800246EE46D210B485D
:10A218002CB915F0B8F800F00F00286065E415F0C7
:10A22800B2F82B6820F00F0203F00F031A436D21D8
:10A23800024815F09AF8002457E400BFD8650020BA
:10A248006D21BD482CB915F09EF8C0F30060286058
:10A258004BE415F098F82B6820F080721B0603F089
:10A2680080731A436D21B44815F07FF834463CE4F6
:10A278006D21B14864B915F086F8001400F07F0329
:10A2880010F0400018BF6FF07F00184328602CE4DE
:10A2980015F079F82B6820F4FE021B0403F4FE0382
:10A2A8001A436D21A44815F060F800241DE46C21C0
:10A2B800A1482CB915F067F8C0F34040286014E4B1
:10A2C80015F061F82B6820F400325B0403F40033C6
:10A2D8001A436C21984815F048F8002405E4002832
:10A2E80040F047816F21944815F04DF8C0F30440C1
:10A2F8002860FFF7FABB20B914F0BCFA2860FFF712
:10A30800F4BB1968002014F02DFA0024FFF7EDBB08
:10A318008A4E88B91421884815F035F850B14FF0A5
:10A32800807393FBF0F0B042A8BF30462860002449
:10A33800FFF7DBBB3046F9E71B6873B14FF080725B
:10A3480092FBF3F2B242A8BF32462A6014217A483F
:10A3580015F00BF80024FFF7C8BB3246F5E76C216F
:10A36800754834B915F00FF8C0F340302860FFF78E
:10A37800BCBB15F008F82B6820F400525B0303F40B
:10A3880000531A436C216C4814F0EFFF3446FFF772
:10A39800ACBB6C21684834B914F0F5FFC0F3035026
:10A3A8002860FFF7A2BB14F0EEFF2B6820F47002C0
:10A3B8001B0503F470031A436C215F4814F0D5FFA2
:10A3C8000024FFF792BB5D4E88B913215A4814F058
:10A3D800DAFF50B14FF0807393FBF0F0B042A8BFA2
:10A3E800304628600024FFF780BB3046F9E71B6839
:10A3F80073B14FF0807292FBF3F2B242A8BF3246BB
:10A408002A6013214C4814F0B0FF0024FFF76DBBFD
:10A418003246F5E77021484834B914F0B4FFC0F368
:10A4280007202860FFF761BB14F0ADFF2A6820F40D
:10A438007F40120292B2024370213F4814F095FF08
:10A4480031463D4814F09FFF2B6820F00402002B92
:10A4580018BF042331461A43374814F086FF3446A0
:10A46800FFF743BB702134482CB914F08CFFC0B2FD
:10A478002860FFF73ABB14F086FF2A7820F0FF0027
:10A48800024370212C4814F070FF0024FFF72DBB05
:10A4980040B97021284814F076FFC0F301402860C5
:10A4A800FFF723BB1B68032B66D87021224814F0E2
:10A4B8006AFF2B6820F440321B0403F440331A432C
:10A4C80070211D4814F051FF0024FFF70EBB7021C6
:10A4D800194834B914F057FFC0F380402860FFF7DB
:10A4E80004BB14F050FF2B6820F48022002B18BF07
:10A4F8004FF4802370211A430F4814F036FF344676
:10A50800FFF7F3BA70210C4834B914F03CFFC0F3DC
:10A5180001502860FFF7E9BA14F035FF2B6820F4E2
:10A5280040121B0503F440131A437021024814F02B
:10A538001CFF0024FFF7D9BAD8650020FFFF0F00E1
:10A54800E8B96F210F4814F01EFFC0F30900286016
:10A55800FFF7CBBA0824FFF7C8BA0424FFF7C5BA37
:10A568000424FFF7C2BA0424FFF7BFBA0424FFF794
:10A57800BCBA0424FFF7B9BA1024FFF7B6BA04240A
:10A58800FFF7B3BAD865002007B5019201AB0246C0
:10A598000120FFF78AFA03B05DF804FB1346024670
:10A5A8000020FFF782BA014814F073BFD865002075
:10A5B80008B5002014F026F910B1094B987868B155
:10A5C800084814F04FFF4FF4003014F09FF90023AF
:10A5D8000549184606C913F0FDFF012008BD00BF54
:10A5E800D40A0020D865002084170020022804BF60
:10A5F8000B4B93F8F00030B90A4BDB681B685B69BA
:10A60800094A90681847012809D1054B93F8F0309A
:10A61800012B04D1034BDB681B689B69F0E770478B
:10A628009C64002070A30208841700200346052BB1
:10A6380010B5084614460BD006D8022B06D314F0E2
:10A6480035F92060002010BD182BF8D00420FAE757
:10A6580014F046F9F5E738B50D46044620B914F06C
:10A66800D1F82860204638BD0820FCE7012910B53C
:10A67800044608D1044A702114F077FE2046BDE84C
:10A68800104014F0C5BE10BDC804050038B50D460D
:10A69800044648B914F09AF82B68C1182960204676
:10A6A80013F018FF204638BD0820FCE7022806D31F
:10A6B800052801D9182802D100201060704704200D
:10A6C8007047054B0846DB6E114603B11847034B2C
:10A6D8001B68DB68FAE700BF9C6400205C68002008
:10A6E8002DE9F0416C4D6D4FD5F890206C4B3846F4
:10A6F800DFF80C82012114F06EFE6A49384614F026
:10A70800DCFED8F80C60684C736803F1CC02A260D8
:10A7180003F5BA72226003F5C872626003F5F2723B
:10A72800226203F50072626203F55472E26003F577
:10A738005B7203F56970226103F5627203F5707349
:10A74800E361336862611B69A06198473368E06917
:10A758001B699847336860691B69984733682068A4
:10A76800DB68984733686068DB6898473368A06897
:10A77800DB68984733682069DB6898473368E06886
:10A78800DB6898473368606ADB6898473368206AF3
:10A79800DB6898473368606A9B6998473368206A22
:10A7A8009B699847336860699B6998473368E06894
:10A7B8009B699847D8F810203C4B02F114011960A6
:10A7C80073684FF4003003F50E73936114F09EF82C
:10A7D800D4E900120023184613F0FCFEAF670127E6
:10A7E800D5F89030324A1F80C3F80422314A02203B
:10A7F800C3F80822304B3222C5F89C302F4B85F81D
:10A808008C70C5F898302E4BC5F894302D4BC5F890
:10A81800A0302D4BC5F8B4302C4BC5F8B0302C4BBC
:10A82800C5F8A4302B4BC5F8A8302B4BC5F8C4305D
:10A838002A4BC5F8C0302A4BC5F8D030294BC5F88B
:10A84800CC30294BC5F8C830284BC5F8DC304FF45C
:10A85800F073C5E92132264BC5F8D430254BC5F82D
:10A86800E830254BC5F8EC30FFF7C0FE0222636ADA
:10A87800197C5A7418683A4619F0DBFD3368606A27
:10A888001E4C1B689847236898470021A368084610
:10A89800BDE8F041184700BF9C640020D86500203F
:10A8A8004889020875A60008841700205C68002003
:10A8B800B9A50008AFA50008979A0008B19A000842
:10A8C800AD9A0008A99A0008A5A5000891A5000856
:10A8D800859A000895A60008799A0008399A000810
:10A8E8004D9A0008659900085FA60008F5A50008BC
:10A8F800E9980008B5A6000835A60008800A0020D7
:10A9080070A3020838B5184B184CDD6820682B680E
:10A918005B6998472B6860689B6898472B68A068B4
:10A928009B6898472B68E0689B6898472B68206964
:10A938009B6898472B6860699B6898472B68A06953
:10A948009B6898472B68E0699B6898472B68206A42
:10A958009B68984714F056F8054B5B6898470023A6
:10A9680084F8243038BD00BF70A30208B81700204F
:10A97800800A002010B50348144614F020FE206019
:10A9880010BD00BF64680020014814F00ABE00BF73
:10A998006468002010B5044618B913F09BFD2046E2
:10A9A80010BD0820FCE710B5044618B913F070FD77
:10A9B800204610BD0820FCE70021F4E74942F2E7F1
:10A9C800F1E770B504461D460E46002940F04E8555
:10A9D800A52A00F08F8256D8172A00F0478126D87A
:10A9E800042A00F0E8800ED8012A00F0AD80002A81
:10A9F80000F09E80022A00F0B280032A00F0BA809C
:10AA08000424204670BD072A00F0068107D8052ACD
:10AA180000F0DF80062A00F0E7800424F1E7082A26
:10AA280000F01181152A00F017810424E9E7322A81
:10AA380000F0B28113D81B2A00F0638107D8182AC6
:10AA480000F039811A2A00F044810424D9E71C2A2D
:10AA580000F06F811D2A00F086810424D1E7A22A24
:10AA680000F0008207D8332A00F0A1818C2A00F078
:10AA7800A9810424C5E7A32A00F00C82A42A00F0C7
:10AA880021820424BDE7B42A00F0B58324D8AA2A79
:10AA980000F018830CD8A72A00F0CE82C0F0868276
:10AAA800A82A00F0E082A92A00F0F4820424A8E78A
:10AAB800AD2A00F0518307D8AB2A00F01B83AC2ADB
:10AAC80000F0308304249CE7AE2A00F05D83B32AAB
:10AAD80000F07983042494E7BB2A00F0278413D874
:10AAE800B82A00F0C88307D8B52A00F09083B62AA0
:10AAF80000F09A83042484E7B92A00F0D683BA2A9E
:10AB080000F0ED8304247CE7C02A00F06C8407D8A9
:10AB1800BC2A00F03384BF2A00F04684042470E77E
:10AB2800CC2A00F07B84CE2A00F09684042468E7BF
:10AB380020B9002013F058FE286062E71968002049
:10AB480013F0C8FC00245CE718B913F03FFE286036
:10AB580057E71968304613F0DFFD344651E718B956
:10AB680013F05EFE28604CE71968002013F090FC93
:10AB7800002446E7002840F07C8413F089FE18B9C9
:10AB880013F040FE28603CE7204613F08FFE1221A8
:10AB98000646B14814F013FDC0F313027A20D31708
:10ABA800A6FB00011DF0DAFA00F11303262B98BF6B
:10ABB8000020286025E718B913F04EFE286020E72A
:10ABC800196830460029B8BF494213F0BFFD344622
:10ABD80017E718B913F032FE286012E71968002049
:10ABE80013F037FF00240CE710219B482CB914F010
:10ABF800E6FCC0F30420286003E714F0E0FC2B68AF
:10AC080020F4F8521B0203F4F8531A431021924817
:10AC180014F0C7FC0024F4E610218F482CB914F076
:10AC2800CEFC00F01F002860EBE614F0C8FC2B688F
:10AC380020F01F0203F01F031A431021864814F066
:10AC4800B0FC3446DDE6002840F0168413F09EFC84
:10AC5800C0F300102860D4E6002800F010841A68B9
:10AC680011217D4814F09DFC0024CAE67B4E80B972
:10AC78001521794814F0A3FC48B14FF0807393FB79
:10AC8800F0F0B042A8BF304628600024B9E630464C
:10AC9800FAE71B686BB14FF0807292FBF3F2B24295
:10ACA800A8BF32462A6015216B4814F07AFC0024AC
:10ACB800A7E63246F6E728B93321674814F07FFC47
:10ACC80028609EE61A683321634814F06AFC002461
:10ACD80097E66C2160482CB914F071FCC0F38040F1
:10ACE80028608EE614F06BFC2B6820F480229B040D
:10ACF80003F480231A436C21574814F052FC0024B3
:10AD08007FE66C2154482CB914F059FCC0F3C040BC
:10AD1800286076E614F053FC2B6820F40022DB044C
:10AD280003F400231A436C214B4814F03AFC3446D0
:10AD380067E638B90146484814F041FCC0F34000C2
:10AD480028605EE60021444814F039FC2B6820F0A6
:10AD580002025B0003F002031A4300213E4814F08C
:10AD680020FC00244DE6002840F08C8313F09EFD63
:10AD780012210646384814F022FCC0F313027A2048
:10AD8800D317A6FB00011DF0E9F900F11303262BE8
:10AD980098BF0020286034E618B913F079FD2860C0
:10ADA8002FE61978304613F0EBFC344629E618B93B
:10ADB80013F07CFD286024E61968002013F0F0FCED
:10ADC80000241EE650B96C21234814F0F8FB4FF418
:10ADD8008073C0F3036003412B6012E61B68102BDD
:10ADE80035D00FDC022B2ED006DC012B18D04FF00B
:10ADF800FF3310242B6004E6042B26D0082BF6D151
:10AE080005230EE0402B24D003DC202BEFD10323B5
:10AE180007E0802B24D0B3F5807FE8D1002300E041
:10AE280008232B606C210C4814F0C9FB2B6820F018
:10AE380070621B0603F070631A436C21064814F015
:10AE4800B0FB0024DDE50723EBE70623E9E704234D
:10AE5800E7E70223E5E700BF64680020FFFF0F0073
:10AE68000123DEE76C21BB482CB914F0A8FBC0F322
:10AE7800C1302860C5E514F0A2FB2B6820F4C0326D
:10AE8800DB0303F4C0331A436C21B24814F089FB86
:10AE98003446B6E56C21AF482CB914F090FBC0F3EA
:10AEA80080302860ADE514F08AFB2B6820F48042DE
:10AEB8009B0303F480431A436C21A64814F071FBEA
:10AEC80000249EE56C21A3482CB914F078FBC0F34C
:10AED8000030286095E514F072FB2B6820F480524E
:10AEE8001B0303F480531A436C219A4814F059FB4E
:10AEF800002486E56C21974804BB14F060FB10F42D
:10AF080080464FF06C01934805D014F058FBC0F30D
:10AF1800C310286075E514F052FB6C2104468D4877
:10AF280014F04DFB2205C0F3021002D4286000245F
:10AF380067E540F008002860344662E514F03FFBFE
:10AF480010F480444FF06C0182480ED014F037FBA7
:10AF58002B6820F4F062DB0103F4F0631A436C21E0
:10AF68007C4814F01EFB34464BE514F028FB6C219A
:10AF7800784814F024FB2A6820F40060120202F4D6
:10AF8800006202436C21734814F00BFB6C2171487A
:10AF980014F015FB2B6820F070021B0103F07003FE
:10AFA8001A436C216B4814F0FCFA2AE56C216948B5
:10AFB800ECB914F004FB10F480444FF06C016548C0
:10AFC80006D014F0FCFAC0F302102860002418E53B
:10AFD80014F0F5FA6C2106465E4814F0F0FA3305D1
:10AFE800C0F3C310A2D540F00800286009E514F0AA
:10AFF800E6FA10F480444FF06C0156480ED014F075
:10B00800DEFA2B6820F070021B0103F070031A436C
:10B018006C21504814F0C5FA0024F2E414F0CFFA79
:10B028002B6820F4F062DB0103F4F0631A436C210F
:10B03800484814F0B6FAE4E46C2146482CB914F0F8
:10B04800BEFA00F00F002860DBE414F0B8FA2B68B1
:10B0580020F00F0203F00F031A436C213D4814F04F
:10B06800A0FA3446CDE46D213A482CB914F0A7FA79
:10B07800C0F3C0302860C4E414F0A1FA2B6820F4AF
:10B088000042DB039BB21A436D21324814F089FA5F
:10B098000024B6E46D212F482CB914F090FAC0F3BF
:10B0A80041302860ADE414F08AFA2B6820F4C042DD
:10B0B8005B0303F4C0431A436D21264814F071FA68
:10B0C80000249EE46D2123482CB914F078FAC0F3CB
:10B0D8000320286095E414F072FA2B6820F470625B
:10B0E8001B0203F470631A436D211A4814F059FACD
:10B0F800344686E46D2117482CB914F060FAC0F381
:10B10800411028607DE414F05AFA2B6820F06002A0
:10B118005B0103F060031A436D210E4814F041FAF5
:10B1280000246EE46D210B482CB914F048FA00F0A5
:10B138000F00286065E414F042FA2B6820F00F0233
:10B1480003F00F031A436D21024814F02AFA002471
:10B1580057E400BF646800206D21BD482CB914F085
:10B168002EFAC0F3006028604BE414F028FA2B682C
:10B1780020F080721B0603F080731A436D21B448D7
:10B1880014F00FFA34463CE46D21B14864B914F068
:10B1980016FA001400F07F0310F0400018BF6FF09B
:10B1A8007F00184328602CE414F009FA2B6820F477
:10B1B800FE021B0403F4FE031A436D21A44814F095
:10B1C800F0F900241DE46C21A1482CB914F0F7F91A
:10B1D800C0F34040286014E414F0F1F92B6820F41F
:10B1E80000325B0403F400331A436C21984814F0CE
:10B1F800D8F9002405E4002840F047816F219448DD
:10B2080014F0DDF9C0F304402860FFF7FABB20B959
:10B2180013F030FB2860FFF7F4BB1968002013F027
:10B22800A1FA0024FFF7EDBB8A4E88B9142188489B
:10B2380014F0C5F950B14FF0807393FBF0F0B042B1
:10B24800A8BF304628600024FFF7DBBB3046F9E78B
:10B258001B6873B14FF0807292FBF3F2B242A8BF41
:10B2680032462A6014217A4814F09BF90024FFF72B
:10B27800C8BB3246F5E76C21754834B914F09FF91C
:10B28800C0F340302860FFF7BCBB14F098F92B6876
:10B2980020F400525B0303F400531A436C216C48FA
:10B2A80014F07FF93446FFF7ACBB6C21684834B919
:10B2B80014F085F9C0F303502860FFF7A2BB14F01F
:10B2C8007EF92B6820F470021B0503F470031A43FF
:10B2D8006C215F4814F065F90024FFF792BB5D4EBE
:10B2E80088B913215A4814F06AF950B14FF08073A5
:10B2F80093FBF0F0B042A8BF304628600024FFF767
:10B3080080BB3046F9E71B6873B14FF0807292FB3F
:10B31800F3F2B242A8BF32462A6013214C4814F017
:10B3280040F90024FFF76DBB3246F5E77021484825
:10B3380034B914F044F9C0F307202860FFF761BB63
:10B3480014F03DF92A6820F47F40120292B20243B9
:10B3580070213F4814F025F931463D4814F02FF983
:10B368002B6820F00402002B18BF042331461A432F
:10B37800374814F016F93446FFF743BB70213448B8
:10B388002CB914F01CF9C0B22860FFF73ABB14F0CE
:10B3980016F92A7820F0FF00024370212C4814F097
:10B3A80000F90024FFF72DBB40B97021284814F09C
:10B3B80006F9C0F301402860FFF723BB1B68032B85
:10B3C80066D87021224814F0FAF82B6820F440322D
:10B3D8001B0403F440331A4370211D4814F0E1F8AC
:10B3E8000024FFF70EBB7021194834B914F0E7F8B0
:10B3F800C0F380402860FFF704BB14F0E0F82B6826
:10B4080020F48022002B18BF4FF4802370211A43A8
:10B418000F4814F0C6F83446FFF7F3BA70210C4809
:10B4280034B914F0CCF8C0F301502860FFF7E9BA3A
:10B4380014F0C5F82B6820F440121B0503F44013E0
:10B448001A437021024814F0ACF80024FFF7D9BA67
:10B4580064680020FFFF0F00E8B96F210F4814F05F
:10B46800AEF8C0F309002860FFF7CBBA0824FFF74D
:10B47800C8BA0424FFF7C5BA0424FFF7C2BA0424E3
:10B48800FFF7BFBA0424FFF7BCBA0424FFF7B9BA20
:10B498001024FFF7B6BA0424FFF7B3BA6468002093
:10B4A80007B5019201AB02460120FFF78AFA03B003
:10B4B8005DF804FB134602460020FFF782BA0148F4
:10B4C80014F0F5B86468002008B5002013F09AF964
:10B4D80010B1094B987870B1084814F0D5F84FF4BA
:10B4E800003013F013FA0023054918468A684968A2
:10B4F80013F070F8012008BDD40A00206468002009
:10B50800B8170020022804BF0B4B93F8F00030B99D
:10B518000A4BDB681B685B69094A106818470128F1
:10B5280009D1054B93F8F030012B04D1034BDB68AC
:10B538001B689B69F0E770479C64002070A30208B1
:10B54800B817002010B51446062805D8DFE800F023
:10B558000618162732374100042010BD136844F638
:10B568002062934239D842F21172B3FBF2F102FB26
:10B5780011311B4B89B29B68002098470020ECE7EB
:10B58800184B2468DA68D2E9003000F507701CB15E
:10B598000021DB699847F1E79B689847EEE7114B74
:10B5A8001168DB68104A1B680031DB6918BF01218C
:10B5B8005069EFE7084612F0E9FF2060DEE7094B23
:10B5C800094ADB6858681B6800F5BA705061DB6887
:10B5D800E3E70220FFF796FFD0E71020BDE700BFA2
:10B5E800800A002070A30208B81700200346052B24
:10B5F80010B5084614460BD006D8022B06D313F014
:10B6080055F92060002010BD182BF8D00420FAE767
:10B6180013F066F9F5E738B50D46044620B913F07E
:10B62800F1F82860204638BD0820FCE738B5194CE9
:10B63800054694F8240001281CD002281FD029466A
:10B64800154814F04CF8002012F05AFF002012F0B0
:10B658009DFF10F008041BD1820619D56F210E48F2
:10B6680013F0ADFFC30113D52046BDE838400221D1
:10B6780012F066BF0223A56284F82430DFE7A36ACC
:10B68800EB1AB3F5FA6FDAD9FFF73CFF0323F3E7B8
:10B6980038BD00BFB817002064680020012910B524
:10B6A80004460DD1074A702113F07BFF2046064A55
:10B6B8000A2113F076FF2046BDE8104013F0C0BF02
:10B6C80010BD00BF1E000CC40004080038B50D46AC
:10B6D800044648B913F07AF82B68C1182960204647
:10B6E80012F0F8FE204638BD0820FCE7022806D3F1
:10B6F800052801D9182802D10020106070470420BD
:10B708007047054B0846DB6E114603B11847034BDB
:10B718001B68DB68FAE700BF9C64002060680020B3
:10B728002DE9F0415C4C5D4FD4F890205C4B3846D5
:10B73800DFF8CC81012113F066FF5A49384613F02F
:10B74800CAFFD8F80C60584D736803F1CC022A6020
:10B7580003F5BA726A6003F5C872AA6003F500724D
:10B76800EA6003F554722A6103F55B7203F56270AF
:10B778006A6103F5697203F570732B623368EA61D5
:10B788001B69A861984733682868DB68984733685D
:10B798006868DB6898473368A868DB689847336847
:10B7A800E868DB68984733686869DB6898473368F6
:10B7B8002869DB6898473368E8685B6998473368A5
:10B7C800A8699B699847336828699B699847D8F89E
:10B7D8001020364B02F11401196073684FF40030E1
:10B7E80003F50E73936113F091F8D5E90112002364
:10B7F800184612F0EFFED4F890202D4BA767C2F838
:10B8080004322C4B3221C2F80832012313802A4A11
:10B8180084F88C30C4F89C20284A85F82430C4F871
:10B828009820274AC4F89420264AC4F8A020264A1B
:10B83800C4F8B420254AC4F8B020254AC4F8A42086
:10B84800244AC4F8A820244AC4F8C420234AC4F8C7
:10B85800C020234AC4F8D020224AC4F8CC20224A67
:10B86800C4F8C820214AC4F8DC204FF4F072C4E9B7
:10B8780021211F4AC4F8D4201E4AC4F8E8201E4AD1
:10B88800C4F8EC201D4C236898470021A36808469B
:10B89800BDE8F041184700BF9C64002064680020A0
:10B8A800488B0208A5B60008B81700206068002079
:10B8B800D1B40008C7B40008AFA90008C9A9000896
:10B8C800C5A90008C1A90008BDB40008A9B40008AA
:10B8D8009DA90008D5B6000891A900087DA900080F
:10B8E80035B600084DB500081FB600080DB50008AC
:10B8F8000DA90008F5B60008F5B50008800A002073
:10B9080070A302080022024BC3F88020704700BFD2
:10B918009C640020014813F01FBF00BFF0170020EF
:10B9280010B50348144613F04AFF206010BD00BF4D
:10B93800F017002038B51546044628B9084612F015
:10B9480025FE2860204638BD0420FCE710B50446D3
:10B9580018B912F0BFFD204610BD0820FCE710B54D
:10B96800044618B912F094FD204610BD0820FCE7E3
:10B978000021F4E74942F2E7F1E7014813F0DCBFA0
:10B98800F017002010B54FF4003012F0BFFF00236D
:10B99800054C1846D4E9A21212F01CFE2046BDE858
:10B9A800104013F0B2BF00BFF0170020022804BFF8
:10B9B8000C4B93F8F00038B90B4BDB681B685B69DC
:10B9C8000A4AD2F884021847012809D1054B93F88E
:10B9D800F030012B04D1044BDB681B689B69EFE74F
:10B9E800704700BF9C64002070A30208F017002075
:10B9F80038B50020FFF7DAFF144B154CDD68D4F892
:10BA080084022B689B6898472B68D4F888029B6847
:10BA180098472B68D4F88C029B6898472B68D4F811
:10BA280090029B6898472B68D4F894029B689847C3
:10BA38002B68D4F898029B6898472B68D4F89C0226
:10BA48009B689847BDE8384012F0DCBF70A3020835
:10BA5800F017002008B50146034813F00BFFBDE8B6
:10BA68000840002012F04CBDF017002038B50D46F4
:10BA7800044648B912F0AAFE2B68C118296020466E
:10BA880012F028FD204638BD0820FCE708B519BB90
:10BA9800052823D8DFE800F003090E22131B1146FE
:10BAA800002012F017FD002008BD1146002012F0FA
:10BAB80033FEF8E71146002012F0EAFCF3E782EAC9
:10BAC800E271A1EBE271002012F040FEEBE71146B3
:10BAD800002012F0BEFFE6E70820E5E70420E3E7D0
:10BAE80010B5144629BB062825D8DFE800F0040A5B
:10BAF8000E12161A1E00002012F076FE206000209A
:10BB080010BD002012F062FEF8E7002012F088FE57
:10BB1800F4E7002012F076FEF0E7002012F09CFE19
:10BB2800ECE7002012F08AFEE8E7044813F00DFF66
:10BB3800E4E70820E4E70420E2E700BFF01700206C
:10BB48000248DBB2D0F8A00211F05CB8F017002070
:10BB5800012213F0E5B8012270B5544E11460720B2
:10BB680013F082F8F568524C6B6803F5BA72C4F8A2
:10BB7800882203F5C872C4F88C2203F59072C4F8C1
:10BB8800902203F59E7203F1CC00C4F8942203F1CD
:10BB9800E80203F58273C4F89C322B68C4F8982233
:10BBA800DB68C4F8840298472B68D4F88802DB68FD
:10BBB80098472B68D4F88C02DB6898472B68D4F830
:10BBC8009002DB6898472B68D4F89402DB689847A2
:10BBD8002B68D4F898021B6998472B680025D4F87D
:10BBE8009C021B699847F36A0126C4F8A0321D70AD
:10BBF8005B6898472F4B3049D3F890203220C2F821
:10BC080004122E491680C2F808122D4983F88C6058
:10BC1800C3F89C102B49C3F898102B49C3F894100B
:10BC28002A49C3F8A0102A49C3F8B4102949C3F80F
:10BC3800B0102949C3F8A4102849C3F8A810284906
:10BC4800C3F8C4102749C3F8C0102749C3F8CC105B
:10BC58002649C3F8DC102649C3F8D8104FF4C3713D
:10BC6800C3E9211023492046C3F8D4102249C3F858
:10BC7800D0102946214B13F0E1FD4FF4003012F0AB
:10BC880045FED4E9A2122B46284612F0A3FC28460A
:10BC98004FF4484112F05AFD28464FF4484112F03B
:10BCA800D8FE3046BDE8704080E600BF70A30208A9
:10BCB800F01700209C6400208DB9000883B90008A3
:10BCC80067B9000881B900087DB9000879B900088A
:10BCD800E9BA000895BA000855B9000875BA00080D
:10BCE8001DB9000829B900083DB90008B5B9000810
:10BCF8000DB90008F9B900085DBA0008488D0208B6
:10BD08000022024BC3F88020704700BF9C640020CB
:10BD1800074870B550F8044B0D46164613F074FEEC
:10BD280033462A4601462046BDE8704010F0D5BF8C
:10BD3800A01A0020074870B550F8044B0D46164667
:10BD480013F062FE33462A4601462046BDE870409D
:10BD580010F07CBFA01A002038B51546044628B953
:10BD6800084612F013FC2860204638BD0420FCE782
:10BD780010B5044618B912F0ADFB204610BD0820D6
:10BD8800FCE710B5044618B912F082FB204610BD36
:10BD98000820FCE70021F4E74942F2E7F1E7024B0B
:10BDA800D3F8940213F028BEA01A002010B54FF45F
:10BDB800003012F0ABFD0023054C1846D4E9A71259
:10BDC80012F008FCD4F89402BDE8104013F00CBE41
:10BDD800A01A0020022804BF0C4B93F8F00038B9D1
:10BDE8000B4BDB681B685B690A4AD2F89802184754
:10BDF800012809D1054B93F8F030012B04D1044BED
:10BE0800DB681B689B69EFE7704700BF9C640020F4
:10BE180070A30208A01A002038B50020FFF7DAFF47
:10BE2800164B174CDD68D4F898022B689B68984726
:10BE38002B68D4F89C029B6898472B68D4F8A0021A
:10BE48009B6898472B68D4F8A4029B6898472B688E
:10BE5800D4F8A8029B6898472B68D4F8AC029B6872
:10BE680098472B68D4F8B0029B68984723689B686A
:10BE78009847BDE8384012F0C5BD00BF70A302085E
:10BE8800A01A002008B5064A0146D2F894320020CC
:10BE9800043213F09AFDBDE80840002012F030BBD0
:10BEA800A01A002038B50D46044648B912F08EFC99
:10BEB8002B68C1182960204612F00CFB204638BDBB
:10BEC8000820FCE708B549BB062829D8DFE800F0B8
:10BED800040A0F28141C21001146002012F0FAFA57
:10BEE800002008BD1146002012F016FCF8E71146A4
:10BEF800002012F0CDFAF3E782EAE271A1EBE271D9
:10BF0800002012F023FCEBE71146002012F0A1FDFF
:10BF1800E6E7D1B2034813F07AFDE1E70820E0E74D
:10BF28000420DEE7A41A002010B5144629BB062811
:10BF380025D8DFE800F0040A0E12161A1E000020A9
:10BF480012F052FC2060002010BD002012F03EFCD0
:10BF5800F8E7002012F064FCF4E7002012F052FC2D
:10BF6800F0E7002012F078FCECE7002012F066FC05
:10BF7800E8E7044813F048FDE4E70820E4E7042074
:10BF8800E2E700BFA41A0020012270B5524C114606
:10BF9800524E072012F068FE201D13F0D9FCF568F8
:10BFA8006B6803F5BA72C4F89C2203F5C872C4F82A
:10BFB800A02203F59072C4F8A42203F59E7203F13F
:10BFC800CC00C4F8A82203F1E80203F58273C4F890
:10BFD800B0322B68C4F8AC22DB68C4F898029847E2
:10BFE8002B68D4F89C02DB6898472B68D4F8A00229
:10BFF800DB6898472B68D4F8A402DB6898472B685D
:10C00800D4F8A802DB6898472B68D4F8AC021B69FF
:10C0180098472B680125D4F8B0021B699847F36A42
:10C0280023605B6898472E4B2E49D3F890204FF435
:10C038000030C2F804122C491580C4F89422C2F8C2
:10C0480008122A4A3221C3F89C20294A83F88C50C6
:10C05800C3F89820274AC3F89420274AC3F8A02099
:10C06800264AC3F8B420264AC3F8B020254AC3F8A4
:10C07800A420254AC3F8A820244AC3F8C420244A87
:10C08800C3F8C020234AC3F8CC20234AC3F8DC20D5
:10C09800224AC3F8D8204FF4C372C3E92121204AA9
:10C0A800C3F8D4201F4AC3F8D02012F02FFCD4E9DB
:10C0B800A7120023184612F08DFA4FF448410020C9
:10C0C80012F044FB00204FF4484112F0C2FC28460D
:10C0D800BDE870407EE600BFA01A002070A30208E9
:10C0E8009C640020B5BD0008A7BD00088BBD0008F2
:10C0F800A5BD0008A1BD00089DBD000831BF00080E
:10C10800CDBE000879BD0008ADBE000819BD000805
:10C118003DBD000861BD0008DDBD000809BD00087F
:10C1280021BE00088DBE00080022024BC3F8802003
:10C13800704700BF9C640020014813F06BBC00BF2F
:10C14800601D002010B50348144613F096FC2060CB
:10C1580010BD00BF601D002010B5044618B912F0CC
:10C16800B9F9204610BD0820FCE710B5044618B9F7
:10C1780012F08EF9204610BD0820FCE70021F4E7F4
:10C188004942F2E7F1E7F8B506461D460C46002994
:10C1980040F06E82332A00F0228140D8052A00F050
:10C1A800C08017D8022A00F0A58007D8002A00F01E
:10C1B8008C80012A00F09480042624E1032A00F0F0
:10C1C800A280042AF8D1002840F0A380002012F0B1
:10C1D80043FB7DE0082A00F0CB800ED8062A00F049
:10C1E800A980072AE8D11021BA48002E40F0B8806B
:10C1F80013F043FC00F01F006AE01D2A00F0CD8018
:10C20800322A00F0E2801C2AD6D1002840F0B880FB
:10C218000146B04813F031FCC0F3400058E0B42A9E
:10C2280000F0AE8123D8A52A00F033810ED88C2ADD
:10C2380000F0DE80A22ABFD16C21A648002E40F073
:10C248001F8113F01AFCC0F3C13041E0A72A00F0A7
:10C258007E81C0F04381B32AAED16C219D48002E67
:10C2680040F0858113F009FCC0F3404030E0BB2A60
:10C2780000F0AA8117D8B52A00F08C81BA2A9BD180
:10C28800002840F092811321924813F0F6FB002811
:10C2980000F089814FF0807393FBF0F08E4B984249
:10C2A800A8BF184614E1C02A00F0BF81CC2A00F0CC
:10C2B800CE81BF2A80D1002840F0A6817021854810
:10C2C80013F0DBFBC0F3014002E018B912F08CFA5E
:10C2D800286098E01968104612F0FCF8002692E0F1
:10C2E80018B9002012F072FAF2E71968002012F06B
:10C2F80013FAF3E710B912F093FAE9E71968204640
:10C3080012F0C6F8EAE700287FF456AF12F07AFA7E
:10C31800DEE7196800200029B8BF494212F016FA72
:10C32800DCE710B912F08AFAD2E71968204612F051
:10C3380090FBD3E71021674826B913F09EFBC0F3A2
:10C348000420C5E713F099FB2B6820F4F8521B0270
:10C3580003F4F85310211A435E4813F05BFBBDE762
:10C3680013F08BFB2B6820F01F0203F01F03F1E78B
:10C3780000287FF421AF12F009F9C0F30010A7E7F5
:10C388000021544813F079FB2B6820F002025B006F
:10C3980003F002031A430021DEE700287FF40CAF04
:10C3A80012F084FA122104464A4813F066FBC0F3DF
:10C3B80013027A20D317A4FB00011BF0CFFE00F173
:10C3C8001303262B98BF002082E718B9002012F02B
:10C3D8005FFA7DE71978002012F0D2F97EE710B9EC
:10C3E80012F064FA74E71968204612F0D9F975E773
:10C3F80058B96C21374813F040FB4FF48073C0F3F1
:10C40800036003412B603046F8BD1B68102B31D008
:10C418000FDC022B2AD006DC012B18D04FF0FF339B
:10C428002B601026EFE7042B22D0082BF6D105232A
:10C438000EE0402B20D003DC202BEFD1032307E0B4
:10C44800802B1BD0B3F5807FE8D1002300E00823C0
:10C458002B606C211F4813F010FB2B6820F07062D2
:10C468001B0603F070631A436C2175E70723EFE797
:10C478000623EDE70423EBE70223E9E70123E7E7D7
:10C4880013F0FBFA2B6820F4C032DB0303F4C0334B
:10C49800E9E700287FF490AE6C210E4813F0EDFA1E
:10C4A80010F480444FF06C010A4804D013F0E5FA08
:10C4B800C0F3C3100CE713F0E0FA6C2106460548F8
:10C4C80013F0DBFAC0F30210330548BF40F0080050
:10C4D800286003E7601D0020FFFF0F006C216548FE
:10C4E800B6B913F0CAFA10F480444FF06C016148F1
:10C4F80004D013F0C2FAC0F30210E9E613F0BDFA53
:10C508006C2106465B4813F0B8FAC0F3C310DBE7AA
:10C5180013F0B3FA10F480464FF06C01554808D078
:10C5280013F0ABFA2B6820F070021B0103F07003C4
:10C5380099E713F0A2FA2B6820F4F062DB0103F408
:10C54800F0631A436C214B4813F064FA5BE76C21E3
:10C55800484826B913F091FA00F00F00B8E613F036
:10C568008CFA2B6820F00F0203F00F037BE713F01F
:10C5780084FA2B6820F400325B0403F4003372E77A
:10C5880000287FF419AE6F213A4813F076FAC0F309
:10C5980004409DE610B912F06DF999E61968204635
:10C5A80012F0E0F89AE6344892E71B6853B14FF06E
:10C5B800807292FBF3F2304B9A42A8BF1A462A6067
:10C5C8001321C9E62C4AFAE770212A4826B913F044
:10C5D80054FAC0F307207BE613F04FFA2A6820F4D8
:10C5E8007F40120292B202437021224813F012FADD
:10C5F8002146204813F041FA2B6820F00402002B52
:10C60800D4BF04230023C5E61B68032B3FF609AFFC
:10C618007021184813F031FA2B6820F440321B04BB
:10C6280003F440331A43702196E67021114826B965
:10C6380013F023FAC0F380404AE613F01EFA2B6881
:10C6480020F48022002B18BF4FF48023EAE77021E2
:10C65800084826B913F011FAC0F3015038E613F070
:10C668000CFA2B6820F440121B0503F44013D9E799
:10C678000826C8E6601D0020FFFF0F0007B50192DD
:10C6880001AB02460120FFF77EFD03B05DF804FB15
:10C6980013460246002076E5014813F0ABBA00BF06
:10C6A800601D002010B54FF4003012F02FF9002360
:10C6B800054C1846D4E9A31211F08CFF2046BDE8BA
:10C6C800104013F080BA00BF601D0020022804BF8C
:10C6D8000C4B93F8F00038B90B4BDB681B685B69AF
:10C6E8000A4AD2F888021847012809D1054B93F85D
:10C6F800F030012B04D1044BDB681B689B69EFE722
:10C70800704700BF9C64002070A30208601D0020D1
:10C7180038B50020FFF7DAFF144B154CDD68D4F864
:10C7280088022B689B6898472B68D4F88C029B6812
:10C7380098472B68D4F890029B6898472B68D4F8E0
:10C7480094029B6898472B68D4F898029B6898478E
:10C758002B68D4F89C029B6898472B68D4F8A002F1
:10C768009B689847BDE8384012F04CB970A302089E
:10C77800601D002008B50146034813F0D9F9BDE84B
:10C788000840002011F0BCBE601D002010B5144602
:10C79800042828D8DFE800F003080E121A0008461B
:10C7A80011F0F4FE206003E01178104813F02BFA22
:10C7B800002010BD0D4813F029FAF3E70C4B0220B6
:10C7C800DB6898476423B0FBF3F0EBE742F21071A3
:10C7D8001368022059436423B1FBF3F1044B89B277
:10C7E8009B689847E4E70420E3E700BF601D00204A
:10C7F800800A002038B50D46044648B911F0E6FF16
:10C808002B68C1182960204611F064FE204638BD07
:10C818000820FCE70248DBB2D0F8A80210F0F2B911
:10C82800601D0020012212F07BBA0122F8B5604E8B
:10C838001146072012F018FAF5685E4C6B6802275B
:10C8480003F5BA72C4F88C2203F5C872C4F89022B2
:10C8580003F59072C4F8942203F59E72C4F89822E6
:10C8680003F1E80203F1CC00C4F89C2203F58272BC
:10C8780003F5E473C4F8A4322B68C4F8A022DB687B
:10C88800C4F8880298472B68D4F88C02DB6898476C
:10C898002B68D4F89002DB6898472B68D4F8940288
:10C8A800DB6898472B68D4F89802DB6898472B68B0
:10C8B800D4F89C021B6998472B68D4F8A0021B691E
:10C8C8009847F36A0126C4F8A8321E705B68984737
:10C8D800394B3A49D3F890203220C2F8041238492B
:10C8E8001680C2F80812374983F88C60C3F89C1088
:10C8F8003549C3F898103549C3F894103449C3F83A
:10C90800A0103449C3F8B4103349C3F8B010334900
:10C91800C3F8A4103249C3F8A8103249C3F8C410A8
:10C928003149C3F8C0103149C3F8CC103049C3F8B5
:10C93800DC103049C3F8D8104FF4C371C3E9211093
:10C948002D492046C3F8D4102C49C3F8D0102C4BDD
:10C95800002113F0D1F84FF4003011F0D7FFD4E9DB
:10C96800A3120023184611F035FE4FF44841002069
:10C9780011F0ECFE4FF44841002012F06AF8D4F8A8
:10C98800A4323246197C5F74186817F052FD2B6880
:10C99800D4F8A4021B4C1B6898472368984738466C
:10C9A800A36841F64C5198473046BDE8F8408DE6FB
:10C9B80070A30208601D00209C640020ADC600081A
:10C9C800A1C6000873C100088DC1000889C100080C
:10C9D80085C1000899C6000885C6000861C100081D
:10C9E800FDC7000841C100084DC1000895C70008EF
:10C9F800D5C6000831C1000819C700087DC700085E
:10CA0800488F0208800A0020012810B514460DD06E
:10CA180043B21BB1022810D0042010BD1268094986
:10CA2800B2FA82F252090A710020F6E71368064A40
:10CA3800B3FA83F35B091360F6E7084611F0A6FD25
:10CA48002060F1E7182000206400002010B503489A
:10CA5800144613F027F9206010BD00BF18200020ED
:10CA680070B5164C0146204613F066F9002011F007
:10CA780047FD002011F0C6FEA3680028B8BF404259
:10CA8800984234BF0026012694F84020B24213D0C1
:10CA980098424FF0050109482CBFA579657913F034
:10CAA80001F905F00F0520F00F022A43052103487C
:10CAB80013F0E6F884F8406070BD00BF182000202D
:10CAC800014813F0DDB800BF1820002010B5044657
:10CAD80018B911F0FFFC204610BD0820FCE710B57E
:10CAE800044618B911F0D4FC204610BD0820FCE714
:10CAF8000021F4E74942F2E7F1E770B504461D4624
:10CB08000E46002940F03283A72A00F0148267D825
:10CB18001D2A00F0028122D8042A00F005810DD8D0
:10CB2800012A00F0E880002A00F0D980022A00F0EB
:10CB3800EB80032A00F0F18004245EE1062A00F06D
:10CB48000981C0F0FD80072A00F01A81082AF3D174
:10CB58000028F1D111F01AFDC0F30010C3E0A12A9A
:10CB680000F086811AD8332A00F0278107D8322AA4
:10CB7800E2D1002840F01C8111F08AFEB3E08C2A33
:10CB880000F02481A02AD7D1002840F06481082130
:10CB9800B64813F087F8C0F34020A4E0A42A00F0B8
:10CBA80099810ED8A22A00F07581A32AC4D1002841
:10CBB80040F085810C21AD4813F074F8C0F3803043
:10CBC80091E0A52A00F09981A62AB5D1002840F065
:10CBD800A7810C21A54813F065F8C0F3021082E084
:10CBE800B22A00F0458241D8AC2A00F0F48113D86B
:10CBF800A92A00F0C581C0F0B081AA2A00F0D1812D
:10CC0800AB2A99D105219948002C40F0DB8113F01B
:10CC180049F8C0F3411066E0AF2A00F0FD8115D84D
:10CC2800AD2A00F0DF81AE2A86D106218F48002C7C
:10CC380040F0E98113F036F8000A00F07F0310F0A5
:10CC4800400018BF6FF07F0018434CE0B02A00F096
:10CC5800F581B12A7FF470AF07218448002C40F099
:10CC6800FE8113F01FF8C0F380203CE0B72A00F0E3
:10CC7800378210D8B42A00F01D82C0F00A82B52A83
:10CC880000F02282B62A7FF457AF784B002840F094
:10CC980024829B6861E0CE2A00F0468213D8B82A25
:10CCA80000F02E82B92A7FF447AF07216F48002C85
:10CCB80000F09B8112F0F6FF2B6820F480321B04F1
:10CCC80003F48033B7E1D02A00F04482D62A7FF4F7
:10CCD80033AF664B002840F046821B693DE020B91F
:10CCE800002011F081FD286087E01968002011F00C
:10CCF800F1FB002481E010B911F068FDF3E7196831
:10CD0800304611F009FDF4E710B911F089FDEAE7A2
:10CD18001968002011F0BCFBEBE7002C7FF40CAF86
:10CD2800204611F06FFDDEE710B911F095FDDAE746
:10CD3800196830460029B8BF494211F007FDD8E705
:10CD480018B9002011F07AFDCDE71968002011F01C
:10CD580080FECEE7454E10B9737B2B604DE01B6813
:10CD68007373337B002BC4D10621404812F09AFF1D
:10CD7800737B20F01F0203F01F031A430621FDE016
:10CD88003A4E08B9B37BE8E71B68B373337B012BD2
:10CD9800AFD10621304612F085FF062120F01F0290
:10CDA8003046B37B03F01F031A4312F069FFA0E774
:10CDB8001978002011F0E4FC9BE710B911F076FD1A
:10CDC80091E71968304611F0EBFC92E740B9082169
:10CDD800264812F067FF00F00F00C0F1080082E754
:10CDE8001B68102B31D010DC022B2AD007DC012B5A
:10CDF80019D04FF0FF3310242B60204670BD042B50
:10CE080021D0082BF5D105230EE0402B1FD003DCE1
:10CE1800202BEED1032307E0802B1AD0B3F5807FB7
:10CE2800E7D1002300E008232B6000210F4812F00F
:10CE380039FF2B6820F00F0203F00F031A4300217B
:10CE48009CE00723F0E70623EEE70423ECE7022340
:10CE5800EAE70123E8E70021044812F023FF2B68E2
:10CE680020F400725B0203F40073E7E71820002047
:10CE780030B90821AB4812F015FFC0F3002032E7A3
:10CE8800A84812F00FFF2B6820F480721B0203F4ED
:10CE98008073D3E730B90C21A24812F003FFC0F326
:10CEA800C13020E704219F4812F0FCFE2B6820F4D3
:10CEB800C032DB0303F4C0331A4304215EE00421CB
:10CEC800984812F0EFFE2B6820F480429B0303F48D
:10CED8008043F1E730B90C21924812F0E3FEC0F329
:10CEE800C12000E704218F4812F0DCFE2B6820F4F3
:10CEF800C052DB0203F4C053DEE730B90C21894885
:10CF080012F0D0FEC0F3C310EDE60421854812F0FC
:10CF1800C9FE2B6820F4F062DB0103F4F063CBE771
:10CF28000421804812F0BEFE2B6820F070021B011D
:10CF380003F07003C0E730B90C217A4812F0B2FE52
:10CF480000F00F00CFE60421764812F0ABFE2B6804
:10CF580020F00F0203F00F03AEE70521714824B952
:10CF680012F0A0FEC0F3C030BDE612F09BFE2B68A5
:10CF780020F40042DB039BB205211A43694814E7F9
:10CF88000521684824B912F08DFEC0F34130AAE6A5
:10CF980012F088FE2B6820F4C0425B0303F4C04300
:10CFA800EAE705215F4824B912F07CFEC0F30320AC
:10CFB80099E612F077FE2B6820F470621B0203F4E6
:10CFC8007063D9E712F06EFE2B6820F060025B01F7
:10CFD80003F06003D0E7534B08B99B79BDE62A6894
:10CFE8009A7186E606214F4824B912F05BFEC0F319
:10CFF800004078E612F056FE2B6820F480321B04BD
:10D0080003F48033B9E612F04DFE2B6820F4FE429B
:10D018001B0203F4FE43B0E60721424824B912F08C
:10D0280041FEC0F381305EE612F03CFE2B6820F42E
:10D0380040429B039BB21A4307219FE707213948C7
:10D0480024B912F02FFEC0F301304CE612F02AFE8C
:10D058002B6820F440521B0303F44053EBE712F013
:10D0680021FE2B6820F480629B0203F48063E2E7D0
:10D0780007212C4824B912F015FEC0F3012032E62E
:10D0880012F010FE2B6820F440721B0203F4407368
:10D09800D1E70721234824B912F004FEC0F3801019
:10D0A80021E612F0FFFD2B6820F040029B0103F0FF
:10D0B8004003C0E700287FF43FAD0221194812F071
:10D0C800F1FDC0F384200EE610B911F0D3FB0AE697
:10D0D8001968002011F046FB0BE62A689A6008E6FA
:10D0E8000721104824B912F0DDFDC0F3C010FAE59D
:10D0F80012F0D8FD2B6820F08002DB01DBB29AE742
:10D108000421084824B912F0CDFDC0F34030EAE507
:10D1180012F0C8FD2B6820F400525B0303F400539F
:10D12800CAE600BF1820002000287FF405AD104B88
:10D138001B6843B102210F4812F0B4FD800A00F4C5
:10D1480078702860D5E501210A4812F0ABFDC0F3DC
:10D158008920F6E700287FF4EFAC0321054812F098
:10D16800A1FDC0B2BFE52A681A61C2E5082444E6F9
:10D17800640000201820002007B5019201AB024688
:10D188000120FFF7BAFC03B05DF804FB1346024622
:10D198000020B2E4014812F041BE00BF1820002070
:10D1A800022804BF0B4B93F8F00030B90A4BDB6838
:10D1B8001B685B69094A106D1847012809D1054B9E
:10D1C80093F8F030012B04D1034BDB681B689B6993
:10D1D800F0E770479C64002070A302081820002024
:10D1E80038B50020FFF7DCFF0F4B104CDD68206DD1
:10D1F8002B685B6998472B68606C9B6898472B681D
:10D20800E06C9B6898472B68206D9B6898472B6853
:10D21800606D9B6898472B68A06C9B689847BDE831
:10D22800384011F0EFBB00BF70A30208182000209F
:10D238000346052B10B5084614460BD006D8022B1A
:10D2480006D311F033FB2060002010BD182BF8D056
:10D258000420FAE711F044FBF5E738B50D4604461B
:10D2680020B911F0CFFA2860204638BD0820FCE725
:10D2780070B5002011F0C6FA0646A8B901240B4D76
:10D28800284612F0AFFD0A4B02201C60FFF788FF0A
:10D298004FF4003011F03AFBD5E9121230466B6DAD
:10D2A80011F098F9204670BD0020FCE718200020F6
:10D2B8006400002038B50D46044648B911F086FAD6
:10D2C8002B68C1182960204611F004F9204638BDA2
:10D2D8000820FCE7022806D3052801D9182802D11E
:10D2E80000201060704704207047054B0846DB6E2D
:10D2F800114603B11847034BDB6DDB68FAE700BF43
:10D308009C640020182000202DE9F0410127474C9B
:10D31800474D484BDFF8708100211F60D4F89020FA
:10D328002846454B12F0E3FCD8F80C60736803F10B
:10D33800CC022A6503F1E80203F5BA706A6503F5C1
:10D34800C87203F50E736B643368EA64DB68A8641B
:10D3580098473368E86CDB6898473368286DDB6862
:10D3680098473368686D1B6998473368686CDB6851
:10D3780098477068336824309B68A8659847D8F840
:10D3880010304FF4003003F11402EA656A6C9A61B8
:10D3980011F0BCFAD5E912126B6D002011F01AF9E0
:10D3A800D4F89030254A84F88C70C3F80822244AAF
:10D3B8000220C3F80422234B3222C4F89C30224BAB
:10D3C800C4F89830214BC4F89430214BC4F8A030ED
:10D3D800204BC4F8B430204BC4F8B0301F4BC4F80D
:10D3E800A4301F4BC4F8A8301E4BC4F8C4301E4BE1
:10D3F800C4F8C0301D4BC4F8D0301D4BC4F8CC3035
:10D408001C4BC4F8C8301C4BC4F8DC304FF41673FE
:10D41800C4E92132194BC4F8D430194BC4F8E830A8
:10D42800184BC4F8EC30BDE8F041B9E69C64002024
:10D438001820002064000020489102089DD10008AF
:10D4480079D20008E7CA000801CB0008FDCA000825
:10D45800F9CA000895D1000881D10008D5CA00088A
:10D46800BDD20008C9CA000855CA000869CA000820
:10D4780011CA000863D20008A9D10008E9D1000840
:10D48800DDD2000839D2000870A30208012810B5BF
:10D4980014460DD043B21BB1022810D0042010BD91
:10D4A80012680949B2FA82F252098A720020F6E734
:10D4B8001368064AB3FA83F35B091360F6E7084674
:10D4C80011F064F82060F1E7842000206800002053
:10D4D80010B5044618B910F0FDFF204610BD08200D
:10D4E800FCE7024B986C12F050BD00BF842000206E
:10D4F800022804BF0B4B93F8F00030B90A4BDB68E5
:10D508001B685B69094A906D1847012809D1054BCA
:10D5180093F8F030012B04D1034BDB681B689B693F
:10D52800F0E770479C64002070A302088420002064
:10D5380038B50020FFF7DCFF0F4B104CDD68A06DFD
:10D548002B685B6998472B68E06C9B6898472B6849
:10D55800606D9B6898472B68A06D9B6898472B68FF
:10D56800E06D9B6898472B68206D9B689847BDE8DD
:10D57800384011F047BA00BF70A302088420002089
:10D5880038B50D46044620B911F03CF9286020460C
:10D5980038BD0820FCE710B5044628B9034B1881AC
:10D5A80010F076FF204610BD0820FCE784200020FC
:10D5B8000021F0E74942EEE7EDE770B5002011F0F1
:10D5C80021F90646B0B901240B4DA96C284612F082
:10D5D800BFFC0A4B02201C60FFF78AFF4FF40030A3
:10D5E80011F094F9D5E914123046EB6D10F0F2FF02
:10D5F800204670BD0020FCE7842000206800002041
:10D6080038B50D46044648B911F0E0F82B68C11842
:10D618002960204610F05EFF204638BD0820FCE750
:10D6280038B51F4C0546636E00219B68C0F3074060
:10D63800984794F86820A36C000203EB82035860B3
:10D64800636E00219B68C5F30720984794F86830FB
:10D65800A26C012102EB830253681843636E000237
:10D6680050609B68E8B29847A26C94F8681002EB87
:10D6780081014B6818430011AB0C486010610AD057
:10D68800C5F34243072B03D1C5F3011184F8681091
:10D6980043F0080300E0082302EB83035D6038BD14
:10D6A8008420002010B40A4C00F07702A36C42F0EA
:10D6B800080203EB8203C1F313015960A37A23B96B
:10D6C80041EA404010BCFFF7ABBF10BC704700BF39
:10D6D8008420002008461146E4E738B504460F20A8
:10D6E80000F013F80323B4FBF3F3054603EB4303FD
:10D6F800E41AE4B220F0300040EA0410FFF790FF8B
:10D708002846BDE83840FFF78BBF38B5084D00F014
:10D718000802A97A044651EA020301D1FFF7DDFFA6
:10D72800AB6C04F07F0403EB8404606838BD00BF71
:10D738008420002070B504461D460E46002940F09E
:10D748002E83A72A00F0028264D81D2A00F0F380F5
:10D7580022D8042A00F0F6800DD8012A00F0D980DA
:10D76800002A00F0CA80022A00F0DC80032A00F0B8
:10D77800E280042418E1062A00F0FA80C0F0EE8066
:10D78800072A00F02081082AF3D10028F1D110F0EF
:10D79800FDFEC0F30010B4E0A12A00F0838119D87F
:10D7A800332A00F02B8107D8322AE2D1002840F032
:10D7B800208111F06DF8A4E08C2A00F02881A02ABD
:10D7C800D7D10820002C40F06481FFF79EFFC0F3FA
:10D7D800402096E0A42A00F090810DD8A22A00F0FB
:10D7E8007181A32AC5D10C20002C40F07D81FFF760
:10D7F8008CFFC0F3803084E0A52A00F08E81A62A31
:10D80800B7D10C20002C40F09881FFF77EFFC0F3C1
:10D81800021076E0B22A00F041823ED8AC2A00F02D
:10D82800E98112D8A92A00F0B981C0F0A381AA2AF7
:10D8380000F0C581AB2A9CD1002840F0D181052099
:10D84800FFF763FFC0F341105BE0AF2A00F0F981F6
:10D8580014D8AD2A00F0DA81AE2A8AD1002840F027
:10D86800E6810620FFF751FF000A00F07F0310F061
:10D87800400018BF6FF07F00184342E0B02A00F064
:10D88800F281B12A7FF475AF002840F0FD810720AE
:10D89800FFF73BFFC0F3802033E0B72A00F0358262
:10D8A80010D8B42A00F01C82C0F00982B52A00F012
:10D8B8002082B62A7FF45DAFAC4B002840F022826C
:10D8C8001B6958E0CE2A00F04B820AD8B82A00F02B
:10D8D8002C82B92A7FF44DAF002840F03782072008
:10D8E80096E1D02A00F05082D62A7FF442AF9F4BAF
:10D8F800002840F051825B683DE020B9002010F01C
:10D9080073FF286050E01968002010F0E3FD002440
:10D918004AE010B910F05AFFF3E71968304610F0E2
:10D92800FBFEF4E710B910F07BFFEAE71968002066
:10D9380010F0AEFDEBE7002C7FF41BAF204610F093
:10D9480061FFDEE710B910F087FFDAE719683046A3
:10D958000029B8BF494210F0F9FED8E718B90020ED
:10D9680010F06CFFCDE71968002011F072F8CEE7CF
:10D978007E4E10B9F37A2B6016E01B68F3727C4B6D
:10D98800DB6E9BB90020FFF7C0FE10F08004BED10B
:10D998000E20FFF7BAFEF37A20F01F0103F01F03F1
:10D9A80019430E20FFF77EFE204670BD2B680E201F
:10D9B8003370FFF7AAFEF37A20F01F0103F01F036C
:10D9C80019430E20E7E0694E08B93378D3E71B689E
:10D9D8003370674BDC6E4CB92046FFF796FE0306A2
:10D9E80095D50E20FFF791FE3378D5E72B68F372B3
:10D9F8008DE71978002010F0C3FE88E710B910F001
:10DA080055FF7EE71968304610F0CAFE7FE738B93F
:10DA18000820FFF77AFE00F00F00C0F1080070E759
:10DA28001B68102B2FD00FDC022B28D006DC012B13
:10DA380018D04FF0FF3310242B60B5E7042B20D00B
:10DA4800082BF6D105230EE0402B1ED003DC202B3B
:10DA5800EFD1032307E0802B19D0B3F5807FE8D1FD
:10DA6800002300E008232B600820FFF74EFE2B68F8
:10DA780020F00F0103F00F03194308208BE0072360
:10DA8800F1E70623EFE70423EDE70223EBE70123A1
:10DA9800E9E7FFF73AFE2B6820F400715B0203F414
:10DAA8000073E9E7082024B9FFF72FFEC0F3002030
:10DAB80027E7FFF72AFE2B6820F480711B0203F486
:10DAC8008073D9E70C2024B9FFF71FFEC0F3C130DB
